:020000040800F2
:10000000100E002001010008C5230008C7230008C6
:10001000CB230008CF230008D323000800000000F2
:10002000000000000000000000000000D7230008CE
:10003000D923000800000000DB230008DD230008AE
:100040001B0100081B0100081B0100081B01000820
:100050001B0100081B0100081B0100084B240008BD
:100060001B0100081B0100081B0100081B01000800
:100070001B0100081B0100081B010008E523000804
:100080001B0100081B0100081B0100081B010008E0
:100090001B0100081B0100081B010008E7230008E2
:1000A0001B0100081B0100081B0100081B010008C0
:1000B0001B0100081B0100081B0100081B010008B0
:1000C0001B010008B9240008C12400081B01000816
:1000D0001B010008B12400081B0100081B010008D7
:1000E0001B0100081B0100081B010008DFF80CD0F1
:1000F00004F05CFC004800472F220008100E00208E
:100100000648804706480047FEE7FEE7FEE7FEE7B1
:10011000FEE7FEE7FEE7FEE7FEE7FEE7F501000883
:10012000ED0000084FF0000108466D4A126842F4E5
:1001300080326B4B1A6000BF694A126802F40030CB
:1001400001F1010110B9B1F5A06FF5D1644A12684F
:1001500012F4003F02D04FF0010001E04FF0000028
:10016000012842D15F4A126842F010025D4B1A60CA
:100170001A46126822F003021A601A46126842F008
:1001800002021A60564A5268554B5A601A46526823
:100190005A601A46526842F480625A601A4652689F
:1001A00022F47C125A601A46526842F4E8125A60ED
:1001B0001A46126842F080721A6000BF484A1268FC
:1001C00012F0007FFAD0464A526822F00302444BF4
:1001D0005A601A46526842F002025A6000BF404A12
:1001E000526802F00C02082AF9D1704710B5FFF7E7
:1001F00099FF10BD10B53A48006840F00100384939
:10020000086008464068384900EA010034494860FF
:1002100008460068354900EA01003149086008468F
:10022000006820F4802008600846406820F4FE0042
:1002300048604FF41F008860FFF7D8FF4FF0006060
:100240002B49086010BD10B54FF00001084602466A
:10025000234B5B6803F00C0121B1042906D0082967
:100260002CD107E0234B244C23602BE0214B224C64
:10027000236027E01A4B5B6803F47010184B5B682F
:1002800003F480324FF0020303EB90402AB91B4B7A
:1002900000FB03F3184C23600FE0114B5B6813F471
:1002A000003F05D0154B00FB03F3134C236004E023
:1002B000104B00FB03F3104C236003E00D4B0E4C7E
:1002C000236000BF00BF064B5B68C3F303130C4CF5
:1002D000E15C094B1B6823FA01F3074C236010BD56
:1002E00000100240002002400000FFF8FFFFF6FE71
:1002F00008ED00E000127A000000002000093D0037
:1003000004000020384940EA0101384A1160704772
:1003100070B54FF000010B464FF00F02C4784CB39C
:10032000324C246804F4E064C4F5E0644FEA14211C
:10033000C1F1040322FA01F2447804FA03F184784B
:1003400004EA020444EA01014FEA0111284C06784C
:10035000A155047804F01F054FF0010404FA05F4D8
:1003600005784FEA65154FF0E02606EB8505C5F8E0
:1003700000410CE0047804F01F054FF0010404FA7A
:1003800005F41C4D06784FEA661645F8264070BD08
:10039000194A01EA020242EA0002184B1A60704749
:1003A00031B1174A126842EA0002154B1A6005E0A3
:1003B000134A126822EA0002114B1A60704704289F
:1003C00008D14FF0E021096941F004014FF0E0222B
:1003D000116107E04FF0E021096921F004014FF0BD
:1003E000E0221161704700000000FA050CED00E00A
:1003F00000E400E080E100E080FFFF1F08ED00E086
:1004000010ED00E001684FF6FE7201EA02010160A2
:100410004FF00001016041608160C16088498842FD
:1004200006D18849496841F00F01864A516078E059
:1004300083491431884206D18249496841F0F0016C
:10044000804A51606DE07E492831884206D17D495D
:10045000496841F470617B4A516062E078493C31FF
:10046000884206D17749496841F47041754A516024
:1004700057E073495031884206D17249496841F4C6
:100480007021704A51604CE06D496431884206D158
:100490006C49496841F470016A4A516041E0684919
:1004A0007831884206D16749496841F07061654AF0
:1004B000516036E06449884208D1A0F1040109681E
:1004C00041F00F01A0F1040211602AE05E491431ED
:1004D000884206D15D49096841F0F0015B4A11602C
:1004E0001FE059492831884206D15849096841F42A
:1004F0007061564A116014E053493C31884206D17C
:100500005249096841F47041504A116009E04E496E
:100510005031884205D14D49096841F470214B4A58
:100520001160704710B54FF00002026847F6F07393
:1005300022EA03020C6A8B6843EA04030C6943EA6B
:1005400004034C6943EA04038C6943EA0403CC695D
:1005500043EA04034C6A43EA04038C6A43EA040353
:1005600043EA02020260CB6843600B6883604B6819
:10057000C36010BD4FF00001016041608160C16047
:10058000016141618161C1610162416281627047C3
:1005900021B1026842F00102026005E002684FF6F4
:1005A000FE7302EA03020260704722B1036843EA65
:1005B0000103036003E0036823EA0103036070475B
:1005C000416070470146486880B2704701464FF06D
:1005D0000000024611F0805F02D01D4B1A6801E056
:1005E000184B1A680A4202D04FF0010001E04FF0A8
:1005F0000000704710F0805F02D01449086001E0ED
:1006000010494860704701464FF00000024611F063
:10061000805F02D00E4B1A6801E00A4B1A680A424A
:1006200002D04FF0010001E04FF00000704710F0E1
:10063000805F02D00549086001E0024948607047C8
:100640000800024000000240080402400404024086
:10065000000402404FF000004A49086001F1040123
:10066000086001F10401086001F1040108604648D6
:100670004649086070474FF0000142498279002ADC
:1006800040D00A461268036822EA03020B461A6049
:1006900001F104021268036822EA030201F1040373
:1006A0001A60027911440A68036842EA03020A6088
:1006B000374A1268036822EA0302354B1A6003F1D5
:1006C00004021268036822EA0302324B1A6042797C
:1006D000102A0ED12E4A1268036842EA03022C4BFC
:1006E0001A602C4A1268036842EA0302294B1A6016
:1006F0000FE02449427911440A68036842EA030280
:100700000A6006E0027911440A68036822EA0302DB
:100710000A6070474FF00001016001714FF00C0159
:1007200041714FF00001817170471B49096841EA2E
:100730000001194A1160704701464FF00000134A4A
:1007400012680A4202D04FF0010001E04FF00000B1
:1007500070470E490860704701464FF0000002469E
:10076000084B1B6803EA0102084B1B680B4203D0CD
:1007700012B14FF0010001E04FF000007047034953
:100780000860704700040140FFFF0F00140401409F
:10079000080401400C0401401004014001464FF0E0
:1007A0000000FE4A106800F0380040EA01001060C6
:1007B0007047FA49096821F00801F84A11601146AA
:1007C000096841EA000111607047F449096821F0A5
:1007D0001001F24A11601146096841EA00011160F6
:1007E0007047EF48ED494860EE4848607047EC4874
:1007F000EA494860EB4848607047E848006940F0C3
:100800008000E64908617047E448006940F08000D4
:10081000E249086170474FF00400E049C96801F0FF
:100820000101012902D14FF0010011E0DB49C96843
:1008300011F0040F02D04FF0020009E0D749C96857
:1008400011F0100F02D04FF0030001E04FF0040050
:10085000704700B502464FF00403FFF7DCFF034684
:1008600004E0FFF7D8FF0346A2F10102012B01D1FA
:10087000002AF6D10AB94FF00503184600BD30B57D
:1008800004464FF004054FF43020FFF7E2FF054621
:10089000042D18D1C148006940F00200BF49086129
:1008A00008464461006940F0400008614FF4302080
:1008B000FFF7CFFF0546B948006941F6FD7100EA30
:1008C0000100B6490861284630BD10B54FF0040458
:1008D0004FF43020FFF7BDFF0446042C17D1AF487A
:1008E000006940F00400AD4908610846006940F025
:1008F000400008614FF43020FFF7ABFF0446A748E3
:10090000006941F6FB7100EA0100A4490861204634
:1009100010BD00B502464FF00403FFF77CFF03460D
:1009200004E0FFF778FF0346A2F10102012B01D199
:10093000002AF6D10AB94FF00503184600BD10B5DC
:100940004FF004044FF43020FFF7E3FF0446042C7B
:1009500017D19248006940F00400904908610846A8
:10096000006940F0400008614FF43020FFF7D1FFEC
:1009700004468A48006941F6FB7100EA0100874994
:100980000861204610BD4FF000008449C96911F08C
:10099000020F02D04FF0010001E04FF0000070475D
:1009A00030B54FF0A5054FF00404FFF7ECFF08B198
:1009B0004FF000054FF43020FFF74BFF0446042CA6
:1009C0003ED1774875498860764888600846006956
:1009D00040F0200008610846006940F040000861CE
:1009E0004FF43020FFF735FF0446042C1ED16B482E
:1009F000006941F6DF7100EA0100684908610846B4
:100A0000006940F010000861674805804FF400500D
:100A1000FFF71FFF0446052C12D06048006941F61D
:100A2000EF7100EA01005D49086109E0052C07D07B
:100A30005A48006941F6EF7100EA01005749086120
:100A4000204630BDF0B504460D464FF004064FF089
:100A500000074FF40050FFF7FCFE0646042E28D195
:100A60004E48006940F001004C49086125804FF470
:100A70000050FFF7EEFE0646042E12D104F10207E5
:100A80004FEA154038804FF40050FFF7E2FE06466B
:100A90004248006941F6FE7100EA01003F490861E1
:100AA00007E03E48006941F6FE7100EA01003B495B
:100AB00008613046F0BD70B504460D464FF004069F
:100AC0004FF40050FFF7C5FE0646042E13D13348FD
:100AD000006940F001003149086125804FF4005061
:100AE000FFF7B7FE06462D48006941F6FE7100EAA1
:100AF00001002A490861304670BD70B505460E46B2
:100B00004FF004044FF40050FFF7A3FE0446042CFA
:100B100019D1234821498860224888600846006925
:100B200040F0100008612E804FF40050FFF791FE56
:100B30000446052C07D01948006941F6EF7100EA18
:100B4000010016490861204670BD2DE9F0430446B6
:100B50004FF6FF763746B046B1464FF004056FEAD0
:100B60000404E6B2C4F30727C4F307484FEA146944
:100B70004FF40050FFF76DFE0546042D4CD1084898
:100B800006498860074888600846006940F0100000
:100B90000861FF2E11D00548068009E000200240C0
:100BA00023016745AB89EFCD00F8FF1F08F8FF1F51
:100BB0004FF40050FFF74DFE0546042D08D1FF2FDE
:100BC00006D0884807804FF40050FFF742FE0546E4
:100BD000042D0AD1B8F1FF0F07D08348A0F8008098
:100BE0004FF40050FFF735FE0546042D0AD1B9F148
:100BF000FF0F07D07D48A0F800904FF40050FFF79A
:100C000028FE0546052D07D07948006941F6EF71A9
:100C100000EA0100764908612846BDE8F08330B556
:100C200005464FF004044FF43020FFF712FE04464F
:100C3000042C46D16F486E4988606F48886008462A
:100C4000006940F0200008610846006940F040005B
:100C500008614FF43020FFF7FCFD0446042C26D138
:100C60006348006941F6DF7100EA010060490861EC
:100C70000846006940F01000086125B14FF00000FF
:100C80005E49088003E04FF0A5005C4908804FF4FE
:100C90003020FFF7DEFD0446052C12D054480069D1
:100CA00041F6EF7100EA01005149086109E0052CA5
:100CB00007D04F48006941F6DF7100EA01004C4956
:100CC0000861204630BDF0B505460E4617464FF088
:100CD0000404484846498860474888604FF40050FB
:100CE000FFF7B7FD0446042C1CD14148006940F0D1
:100CF00010003F49086147F0F80040EA060040EA6A
:100D000005003F4908804FF40050FFF7A2FD04465C
:100D1000052C07D03648006941F6EF7100EA010062
:100D2000334908612046F0BD3148C06980087047EA
:100D30002F48006A70474FF000002D49096811F0F4
:100D4000200F02D04FF0010001E04FF0000070478B
:100D500031B1274A126942EA0002254B1A6105E0C7
:100D6000234A126922EA0002214B1A6170470146A8
:100D70004FF0000001290AD11D4AD26912F0010F7B
:100D800002D04FF001000BE04FF0000008E0184ADD
:100D9000D2680A4202D04FF0010001E04FF000009B
:100DA00070471349C86070474FF004001049C96884
:100DB00001F00101012902D14FF0010011E00C49BD
:100DC000C96811F0040F02D04FF0020009E0084991
:100DD000C96811F0100F02D04FF0030001E04FF08E
:100DE000040070470AF8FF1F0CF8FF1F0EF8FF1FE2
:100DF0000020024023016745AB89EFCD00F8FF1FBB
:100E000002F8FF1F10B50446DE48844208D10121D4
:100E1000042000F0B5FD0021042000F0B1FD46E003
:100E2000D948844208D10121082000F0A9FD002101
:100E3000082000F0A5FD3AE0D448844208D1012101
:100E4000102000F09DFD0021102000F099FD2EE003
:100E5000CF48844208D10121202000F091FD0021DB
:100E6000202000F08DFD22E0CA48844208D10121F3
:100E7000402000F085FD0021402000F081FD16E0BB
:100E8000C548844208D10121802000F079FD00216D
:100E9000802000F075FD0AE0C048844207D101219E
:100EA000801500F06DFD0021A01500F069FD10BD5A
:100EB00010B50121084600F063FD0021012000F07B
:100EC0005FFD10BD2DE9F04102464FF000052E46B2
:100ED000284603460446074691F803C00CF00F0568
:100EE00091F803C01CF0100F03D091F802C04CEA37
:100EF0000505B1F800C01CF0FF0F35D014684FF0A5
:100F000000002EE04FF0010C0CFA00F3B1F800C025
:100F10000CEA03069E4222D14FEA80034FF00F0CE9
:100F20000CFA03F724EA070405FA03FC4CEA04046C
:100F300091F803C0BCF1280F06D14FF0010C0CFA58
:100F400000FCC2F814C00AE091F803C0BCF1480FDD
:100F500005D14FF0010C0CFA00FCC2F810C000F1F2
:100F600001000828CED31460B1F800C0BCF1FF0F17
:100F700038DD54684FF0000031E000F1080C4FF00C
:100F8000010808FA0CF3B1F800C00CEA03069E420F
:100F900023D14FEA80034FF00F0C0CFA03F724EA39
:100FA000070405FA03FC4CEA040491F803C0BCF101
:100FB000280F05D100F1080C08FA0CF8C2F81480CB
:100FC00091F803C0BCF1480F07D100F1080C4FF0B5
:100FD000010808FA0CF8C2F8108000F10100082896
:100FE000CBD35460BDE8F0814FF6FF7101804FF024
:100FF000020181704FF00401C170704702464FF04A
:10100000000093680B4202D04FF0010001E04FF066
:10101000000070470146886880B2704702464FF072
:101020000000D3680B4202D04FF0010001E04FF006
:10103000000070470146C86880B270470161704780
:10104000416170470AB1016100E041617047C160D0
:1010500070474FF4803242EA01028261816182610D
:1010600082698269704702464FF000004C4B186855
:101070004FF6807300EA030040EA021040EA0100E4
:10108000474B186070474749C8617047F0B50A463A
:101090004FF000031C4619460D4600F00046B6F11D
:1010A000004F02D13E4EF16901E03D4E7168C0F340
:1010B000034583B200F44016B6F5401F08D121F075
:1010C0007061374E766826F07066354F7E6017E0A7
:1010D00000F48016B6F5801F08D14FF0030606FA1B
:1010E00005F421EA040141F0706109E04FEA50562D
:1010F0004FEA061603FA06F621EA060141F070618E
:101100003AB14FEA50564FEA061603FA06F646EA97
:10111000010100F00046B6F1004F02D1204EF1610E
:1011200001E01F4E7160F0BD30B54FF000024FEA94
:1011300081734FEA13744FF00F0303FA04F21A4B52
:101140004FEAA10453F8243023EA0203164C4FEA75
:10115000A10544F8253023464FEAA10453F8243072
:101160004FEA81744FEA147400FA04F443EA04036A
:101170000D4C4FEAA10544F8253030BD0B490860FD
:101180007047000000080140000C014000100140C1
:101190000014014000180140001C014000200140E3
:1011A000000001400000204208000140DC00204215
:1011B00010B50446FB48844209D10121480500F0DE
:1011C000EEFB00214FF4001000F0E9FB08E00121E4
:1011D000880500F0E4FB00214FF4800000F0DFFB05
:1011E00010BD2DE9F04385B004460D464FF00006D2
:1011F000B1464FF00407DFF8B083A6884FF6C07001
:1012000006EA0006684600F022FBDDF80880E748A1
:10121000B8FBF0F01FFA80F946EA0906A68020889C
:101220004FF6FE7100EA010020804FF00006E04911
:10123000286888420FD828684FEA4000B8FBF0F0D1
:1012400087B2042F01DA4FF0040746EA070609F1D6
:101250000100208429E0E888A0F53F41FF3906D14C
:10126000286800EB4000B8FBF0F087B209E028687E
:1012700000EBC00101EB0010B8FBF0F087B247F4BF
:1012800080473805000D01D147F0010747F40040C1
:1012900040EA06064FF4967009FB00F04FF47A71AD
:1012A00090FBF1F000F101002084A683208840F03B
:1012B0000100208026884FF6F53006EA0006A8884F
:1012C000698940EA010040EA06062680A889298942
:1012D00040EA0100208105B0BDE8F08341F2883189
:1012E00001604FF0000181804BF6FF71C1804FF02B
:1012F0000001018141814FF480418181704721B11A
:10130000028842F00102028005E002884FF6FE7377
:1013100002EA03020280704721B1828842F400622F
:10132000828005E082884FF2FF7302EA0302828026
:10133000704721B1828842F48052828005E0828821
:101340004EF6FF7302EA03028280704721B10288E1
:1013500042F48072028005E002884FF6FF6302EAE1
:1013600003020280704721B1028842F400720280B9
:1013700005E002884FF6FF5302EA0302028070473D
:1013800021B1028842F48062028005E002884FF6B3
:10139000FF3302EA0302028070470A464FF0000161
:1013A00081894FF6017301EA030102F0FE0343EA6B
:1013B00001018181704721B1828942F0010282815D
:1013C00005E082894FF6FE7302EA030282817047CC
:1013D00021B1028842F04002028005E002884FF607
:1013E000BF7302EA03020280704710B522B18388FE
:1013F00043EA0103838006E083886FEA0104A4B214
:1014000003EA0403838010BD018270470146088A05
:10141000C0B2704712B141F0010103E04FF6FE7314
:1014200001EA03010182704702464FF000031346B0
:101430000B441888704721B1028842F400420280B0
:1014400003E00288C2F30E0202807047B1F5006F1C
:1014500004D1028842F40062028005E002884FF263
:10146000FF7302EA030202807047B1F5005F04D106
:10147000028842F40052028005E002884DF6FF73B4
:1014800002EA03020280704721B1028842F48052CE
:10149000028005E002884EF6FF7302EA0302028032
:1014A0007047B1F5006F04D1028842F400620280F7
:1014B00005E002884FF2FF7302EA030202807047E0
:1014C00021B1028842F02002028005E002884FF636
:1014D000DF7302EA0302028070470146088B4FEA7D
:1014E0002020704721B1028842F01002028005E0FE
:1014F00002884FF6EF7302EA03020280704721B9B7
:10150000028842F08002028005E002884FF67F7375
:1015100002EA030202807047B1F5804F06D0828B49
:101520004BF6FF7302EA0302828303E0828B42F4EC
:1015300080428283704770B502464FF00004254612
:1015400023461846958A138B4FEA034345EA030660
:1015500026F07F4404EA01068E4202D14FF00100DA
:1015600001E04FF0000070BD10B501464FF00000E3
:10157000034602468B8A0A8B4FEA024243EA020480
:1015800024F07F4010BD30B503464FF00000044604
:1015900002461A464FEA117421F07F4154B102F11C
:1015A00014020BE00054004000127A0040420F0089
:1015B000A08601004FEA114102F1180215680D42A0
:1015C00002D04FF0010001E04FF0000030BD4FF0BD
:1015D000000221F07F426FEA02038382704730B538
:1015E00002464FF000000346948801F0E06504EAEB
:1015F000154321F07F41948A0C4203D013B14FF080
:10160000010001E04FF0000030BD4FF0000221F07A
:101610007F426FEA0203838270470000F748006848
:1016200040F00100F549086008464068F44900EAC6
:101630000100F249486008460068F24900EA0100EA
:10164000EE4908600846006820F4802008600846DB
:10165000406820F4FE0048604FF41F008860704727
:10166000E649096821F48031E44A116011460968AD
:1016700021F480211160B0F5803F03D0B0F5802FB8
:101680000ED106E0DD49096841F48031DB4A116082
:1016900007E0DA49096841F4A021D84A116000E066
:1016A00000BF00BF704710B501464FF0000213465F
:1016B00010464FEA6112012A02D1D04C236806E09D
:1016C000022A02D1CD4C236A01E0CC4C636A01F0BE
:1016D0001F024FF0010404FA02F41C4202D04FF042
:1016E000010001E04FF0000010BD70B54FF00004A4
:1016F0002546264600BF3120FFF7D5FF064604F1F8
:101700000104B4F5A06F01D0002EF4D03120FFF712
:10171000CAFF10B14FF0010501E04FF00005284667
:1017200070BD01464FF00000B44A106820F0F80088
:1017300040EAC10010607047B34908607047024634
:101740004FF00000AD4B586820F47C1042EA0103D2
:1017500043EA0000A94B58607047AB4908667047E0
:1017600001464FF00000A54A506820F0030040EA0F
:10177000010050607047A148406800F00C007047BD
:1017800001464FF000009D4A506820F0F00040EA0A
:1017900001005060704701464FF00000974A5068C2
:1017A00020F4E06040EA01005060704701464FF0CD
:1017B0000000924A506820F4605040EAC100506036
:1017C000704731B18D4A527A42EA00028B4B5A720D
:1017D00008E08A4A527A6FEA0003DBB202EA0302A7
:1017E000864B5A72704789490860704701464FF02E
:1017F0000000824A506820F4404040EA01005060F6
:1018000070474FF00001824A11707C4A82F8201024
:10181000012802D004280AD104E04FF001017C4ADB
:10182000117005E04FF00501794A117000E000BF2A
:1018300000BF70477749086070477049096A41EAFC
:1018400000016E4A1162704773490860704730B5F5
:101850004FF000010A460C460B46684D6D6805F0D6
:101860000C0121B1042905D0082927D105E06B4DD1
:10187000056026E0694D056023E0604D6D6805F464
:1018800070125E4D6D6805F480344FF0020505EB73
:10189000924224B9624D02FB05F505600DE0574DFB
:1018A0006D6815F4003F04D05D4D02FB05F5056041
:1018B00003E05A4D02FB05F5056002E0574D056057
:1018C00000BF00BF4D4D6D6805F0F0014FEA1111EA
:1018D000544D6B5C056825FA03F54560474D6D680E
:1018E00005F4E0614FEA11214E4D6B5C456825FA25
:1018F00003F58560414D6D6805F460514FEAD121D3
:10190000484D6B5C456825FA03F5C5603B4D6D6835
:1019100005F440414FEA9131434D6B5CC568B5FB1E
:10192000F3F5056130BD31B1344A526942EA000233
:10193000324B5A6105E0314A526922EA00022F4BCC
:101940005A61704731B12D4A926942EA00022B4B2D
:101950009A6105E0294A926922EA0002274B9A61BE
:10196000704731B1254AD26942EA0002234BDA615D
:1019700005E0224AD26922EA0002204BDA61704770
:1019800031B11E4AD26842EA00021C4BDA6005E01F
:101990001A4AD26822EA0002184BDA60704731B165
:1019A000164A126942EA0002144B1A6105E0134A12
:1019B000126922EA0002114B1A6170471B49086044
:1019C00070471149C86470470C49C87170470B488B
:1019D000406A40F0807009494862704701464FF004
:1019E0000000064A92680A4202D04FF0010001E06E
:1019F0004FF00000704701498872704700100240A4
:101A00000000FFF8FFFFF6FE00004242D80042420D
:101A100020100240800442423C04424200127A00FC
:101A200000093D0014000020240000204004424230
:101A300010B50446F848844209D101218803FFF714
:101A40009FFF00214FF48040FFF79AFF32E0F348F8
:101A5000844209D101214804FFF7A1FF00214FF47E
:101A60000030FFF79CFF25E0ED48844209D10121B9
:101A70008804FFF794FF00214FF48020FFF78FFFC9
:101A800018E0E848844209D10121C804FFF787FF24
:101A900000214FF40020FFF782FF0BE0E248844270
:101AA00008D101210805FFF77AFF00214FF48010CB
:101AB000FFF775FF10BD2DE9F04786B005460E46CD
:101AC0004FF00004A24600BFA1462746B08900B1EE
:101AD00000BF2F462C8A4CF6FF7004EA0004F08801
:101AE00040EA04042C82AC894EF6F31004EA0004A8
:101AF000B088318940EA0100718940EA010040EA7A
:101B00000404AC81AC8A4FF6FF4004EA0004B089BB
:101B100040EA0404AC8201A8FFF799FEBE48874260
:101B200002D1DDF810A001E0DDF80CA0A88910F4C6
:101B3000004F09D00AEBCA0000EB0A1031684FEAE7
:101B40004101B0FBF1F808E00AEBCA0000EB0A1013
:101B500031684FEA8101B0FBF1F84FF06400B8FB47
:101B6000F0F04FEA00144FEA14104FF0640101FB4B
:101B70001089A88910F4004F0AD04FF0320000EB12
:101B8000C900B0FBF1F000F0070040EA04040BE0EC
:101B90004FF0320000EB09104FF06401B0FBF1F0A0
:101BA00000F00F0040EA04042C8106B0BDE8F08785
:101BB0004FF4165101604FF000018180C180018116
:101BC0004FF00C0141814FF000018181704710B549
:101BD00002464FF00000108A4FF2FF0300EA0300B4
:101BE0000B884C8843EA04038C8843EA0403CC88BE
:101BF00043EA040343EA0000108210BD4FF00001E5
:101C0000018041808180C180704721B1828942F486
:101C10000052828105E082894DF6FF7302EA0302D9
:101C200082817047F0B503464FF0000426462546F2
:101C30002046A1F510676A3F00D100BF1846C1F3E6
:101C4000421401F01F064FF0010707FA06F5012CB8
:101C500002D100F10C0006E0022C02D100F11000CC
:101C600001E000F1140022B1076847EA05070760A8
:101C700003E0076827EA05070760F0BD10B522B149
:101C8000838A43EA0103838206E0838A6FEA0104C0
:101C9000A4B203EA0403838210BD028A4FF6F073F4
:101CA00002EA03020282028A42EA010202827047C9
:101CB00082894FF2FF7302EA03028281828942EA3B
:101CC00001028281704721B1828942F00202828141
:101CD00005E082894FF6FD7302EA030282817047B4
:101CE000028A4FF6DF7302EA03020282028A42EAA4
:101CF00001020282704721B1028A42F480420282CC
:101D000005E0028A4BF6FF7302EA03020282704783
:101D1000C1F308028280704701468888C0F308003A
:101D20007047818941F0010181817047028BD2B2F5
:101D30000283028B42EA012202837047028B02F483
:101D40007F420283028B42EA01020283704721B183
:101D5000828A42F02002828205E0828A4FF6DF7397
:101D600002EA03028282704721B1828A42F01002A5
:101D7000828205E0828A4FF6EF7302EA03028282D2
:101D8000704721B1828A42F00802828205E0828A8D
:101D90004FF6F77302EA03028282704721B182890B
:101DA00042F40042828103E08289C2F30E02828102
:101DB000704721B1828A42F40062828205E0828A01
:101DC0004FF2FF7302EA030282827047828A4FF663
:101DD000FB7302EA03028282828A42EA0102828261
:101DE000704721B1828A42F00202828205E0828A33
:101DF0004FF6FD7302EA03028282704702464FF0FB
:101E00000000B1F5007F00D100BF13880B420DD058
:101E10004FF001000CE00000003801400044004099
:101E200000480040004C0040005000404FF00000CF
:101E3000704701F40072B2F5007F00D100BF6FEA75
:101E400001020280704770B502464FF0000423463D
:101E50001D461846A1F510666A3E00D100BFC1F3C9
:101E6000421501F01F034FF0010606FA03F3012D9E
:101E700003D1968906EA030308E0022D03D1168AEE
:101E800006EA030302E0968A06EA03034FEA2124E6
:101E90004FF0010606FA04F4168806EA04041BB1A2
:101EA00014B14FF0010001E04FF0000070BD10B51B
:101EB0004FF000021346A1F510646A3C00D100BF48
:101EC0004FEA21224FF0010404FA02F4A3B26FEAB0
:101ED0000304048010BD000000B585B00121880511
:101EE000FFF73FFD01210920FFF72CFDFE48FFF71A
:101EF0005FF94FF00000ADF808004BF6FF70ADF849
:101F00000A004FF0DD00ADF80C004FF48060ADF832
:101F10000E004FF48040ADF81000F44801904FF4EB
:101F20008060ADF800004FF01C008DF803004FF00A
:101F300001008DF802006946ED48FEF7C3FF4FF43B
:101F40000060ADF800004FF01C008DF803004FF06A
:101F500001008DF802006946E548FEF7B3FF012154
:101F6000E148FFF7CCF901A9DF48FFF73AF905B0DE
:101F700000BD2DE9F04104460E4615464FF0010123
:101F8000D948FFF7E3F900BFDA49D748FFF7D3FA9A
:101F90000128F9D1D848078804F0FE044FF0000268
:101FA0002146D148FFF736FA00BFD449CE48FFF7A3
:101FB000C2FA0028F9D03146CB48FFF725FA00BF16
:101FC000CE49891CC848FFF7B6FA0028F8D0294640
:101FD000C548FFF719FA00BFC849891CC248FFF776
:101FE000AAFA0028F8D00121BF48FFF7BCF9BDE8E4
:101FF000F08170B504460D464FF00101BA48FFF775
:10200000A5F900BFBB49B848FFF795FA0028F9D0F9
:102010000021B548FFF7B4F944F001044FF0000285
:102020002146B148FFF7F6F900BFB449AE48FFF7C3
:1020300082FA0028F9D02946AB48FFF7E5F900BF3E
:10204000AE49891CA848FFF776FA0028F8D001218C
:10205000A548FFF77BF900BFA649A348FFF76BFA35
:102060000028F9D0012221469F48FFF7D3F900BF8D
:10207000A049491C9C48FFF75EFA0028F8D00121CE
:102080009948FFF770F900BF9A493F319648FFF72A
:1020900052FA0028F8D09448FFF7B8F906463046BF
:1020A00070BD10B500224FF4E0618F48FFF79DF935
:1020B0003F2220213020FFF75CFF00222121302029
:1020C000FFF757FF102222213020FFF752FF002296
:1020D00023213020FFF74DFF002224213020FFF77D
:1020E00048FFEF222021D020FFF743FF00222121CB
:1020F000D020FFF73EFF08222221D020FFF739FF32
:1021000000222321D020FFF734FF00222421D020F9
:10211000FFF72FFF01224FF440717348FFF765F975
:1021200010BD2DE9F0414FF00004254626464FF042
:1021300028014FF0D000FFF75CFF07462921D0208F
:10214000FFF757FF07EB0024B4F5004F01DBA4F5C0
:1021500080342A21D020FFF74CFF07462B21D020C6
:10216000FFF747FF07EB0025B5F5004F01DBA5F5AD
:1021700080352C21D020FFF73CFF07462D21D020B1
:10218000FFF737FF07EB0026B6F5004F01DBA6F59A
:10219000803633462A46214659A002F067FCBDE846
:1021A000F0812DE9F0414FF00004254626464FF01E
:1021B0003F024FF020014FF03000FFF7DAFE2821F8
:1021C0003020FFF716FF074629213020FFF711FFC7
:1021D00007EB0024B4F5004F01DBA4F580342A217D
:1021E0003020FFF706FF07462B213020FFF701FFC5
:1021F00007EB0025B5F5004F01DBA5F580352C2157
:102200003020FFF7F6FE07462D213020FFF7F1FEC4
:1022100007EB0026B6F5004F01DBA6F58036334606
:102220002A4621463BA002F021FCBDE8F08100F0E7
:1022300051F900F0B5FA00F095F900F042FB00F01A
:10224000F1F9FFF72EFF01F0D0FA01F038FE4FF060
:102250002400344948714FF000003349487092E03F
:10226000002240F227713148FFF7DCFC3048C0788B
:1022700000287BD04FF000002D49C8702D48017810
:10228000407801EB002000B22A4988810846817815
:10229000C07801EB002000B22649C88108460179C8
:1022A000407901EB002000B222490882084681797A
:1022B000C07901EB002000B21E4948820846017A2D
:1022C000407A01EB002000B21A4988820846817AE0
:1022D000C07A01EB002000B21649C88201F064FE0A
:1022E00001F0AFFE012327E000580040400D03003D
:1022F000000C014001000300145800408200070058
:102300006779726F203A2564202564202564202097
:102310002000000061636365723A25642025642013
:1023200025640A00540000202800002000380140E5
:10233000300000203C00002006221B491B4801F011
:10234000C7FA4FF026011848A0F1050041774FF079
:1023500028014FF0300000F0E9FA4FF02000144956
:1023600048704FF001011348FEF7F0FF12488078E3
:1023700048B14FF00000104988701048006880F0A4
:1023800020000E4908606BE770B504460D46E1B2C7
:102390000B48FFF7BDFC00BF80210948FFF72EFD69
:1023A0000028F9D0204670BD59000020EC0600201E
:1023B0002800002000580040300000200C0C014094
:1023C00000380140704700BFFEE700BFFEE700BFD6
:1023D000FEE700BFFEE770477047704710B500F09A
:1023E00017FC10BD704710B54020FEF7B5F958B383
:1023F00035488179C07901EB002000B2324948822A
:102400000846017A407A01EB002000B22E4988820A
:102410000846817AC07A01EB002000B22A49C882BE
:102420004FF028014FF0D00000F080FA27484078A4
:1024300040F01000254948704FF001012448FEF794
:1024400085FF4020FEF79BF910BD10B50220FEF776
:1024500083F960B31D48407830BB1B480178407851
:1024600001EB002000B21849888108468178C078C5
:1024700001EB002000B21449C88108460179407977
:1024800001EB002000B2104908824FF028014FF004
:10249000300000F04BFA4FF020000C4948704FF02C
:1024A00001010B48FEF752FF0220FEF768F910BD4C
:1024B00010B500F04FFA10BD10B500F0A0FA10BD35
:1024C00010B500F07FFB10BD3C000020280000206C
:1024D0000058004010B5FFF7A1F84FF48030FFF727
:1024E000BFF8FFF702F90446012C29D11020FEF7AE
:1024F0006CF90220FEF752F90020FFF741F94FF482
:10250000C060FFF753F9A002FFF745F94FF44040D0
:10251000FFF76CF94FF4E0112004FFF710F90120E8
:10252000FFF71BF900BF3920FFF7BDF80028FAD0EC
:102530000220FFF715F900BFFFF71DF90828FBD1AE
:1025400001210846FFF7EFF901214FF40170FFF771
:10255000F9F901210820FFF7F5F901211020FFF713
:10256000F1F910BD00B587B04FF4E13003904FF0A2
:102570000000ADF81000ADF81200ADF81400ADF891
:1025800018004FF00C00ADF816004FF0010144F2B6
:102590000100FFF7D7F94FF40070ADF808004FF0D5
:1025A00018008DF80B004FF003008DF80A0002A907
:1025B000FE48FEF787FC4FF48060ADF808004FF04E
:1025C00004008DF80B0002A9F848FEF77BFC03A974
:1025D000F748FFF770FA4FF4E060FDF793FE4FF015
:1025E00025008DF804004FF002008DF806008DF8EC
:1025F00005004FF001008DF8070001A8FDF788FEE7
:10260000012240F22771EA48FFF70CFB012240F259
:102610002551E748FFF706FB0121E548FFF7F5FAEA
:1026200007B000BD00B587B001218805FFF799F913
:1026300001210920FFF786F94FF00000ADF81000E6
:102640004BF6FF70ADF812004FF0A000ADF814008B
:102650004FF00000ADF816004FF48040ADF81800C0
:10266000D44803904FF48060ADF808004FF01C0090
:102670008DF80B004FF003008DF80A0002A9CE4838
:10268000FEF720FC4FF40060ADF808004FF01C008E
:102690008DF80B004FF003008DF80A0002A9C64820
:1026A000FEF710FC03A9C548FEF79BFD4FF4E06060
:1026B000FDF728FE4FF021008DF804004FF00500D3
:1026C0008DF806004FF001008DF805008DF8070029
:1026D00001A8FDF71DFE4FF022008DF804004FF019
:1026E00005008DF806004FF000008DF805004FF052
:1026F00001008DF8070001A8FDF70AFE01224FF442
:102700004071AE48FEF771FE0021AC48FEF704FEB2
:102710000121AA48FEF7F3FD07B000BD00B58DB05A
:10272000A748FDF76FFEA7480290A74803904FF017
:10273000000004904FF0060005904FF00000069056
:102740004FF0800007904FF00000089009904FF084
:1027500020000A904FF480500B904FF000000C9036
:1027600002A99748FDF7DEFE01219548FDF710FF0D
:102770004FF00F008DF804004FF000008DF80600B8
:102780008DF805004FF001008DF8070001A8FDF756
:10279000BFFD012202218A48FDF707FF0DB000BDF1
:1027A00008B54FF02000ADF800004FF010008DF894
:1027B00003004FF002008DF8020069467E48FEF7E4
:1027C00081FB20217C48FEF739FC08BD1FB50121A3
:1027D0000D20FFF7B7F84FF007008DF800004FF01D
:1027E00002008DF801008DF802004FF001008DF815
:1027F00003006846FDF78CFD4FF017008DF80000D0
:102800004FF001008DF801004FF003008DF8020039
:102810004FF001008DF803006846FDF779FD0221B5
:102820006548FEF70DFC4FF00200ADF80C004FF0CC
:1028300004008DF80F0003A95F48FEF743FB402119
:102840005A48FEF7FDFB4FF04000ADF80C004FF08A
:1028500004008DF80F0003A95448FEF733FBFDF781
:10286000F9FE01210846FEF75FFC06210020FEF775
:102870005BFC4FF0020001904FF000008DF8080063
:102880004FF008008DF809004FF001008DF80A00A4
:1028900001A8FDF7F0FE4FF0400001904FF000005E
:1028A0008DF808004FF008008DF809004FF0010086
:1028B0008DF80A0001A8FDF7DEFE4220FDF735FF86
:1028C0001FBD30B54149B1F1807F02D34FF0010007
:1028D00028E021F07F40A0F101004FF0E02250619C
:1028E0004FF0FF304FF00F0200280ADA4FEA027370
:1028F0004FEA1365364B00F00F04A4F104041D5594
:1029000005E04FEA02734FEA1364324B1C5400BFD8
:102910004FF000004FF0E02290614FF0070010618F
:102920004FF0000008B100BFFEE730BD02462A4864
:10293000807908B1002070472748027081704FF0FD
:102940000100254B18714FF000005871D8704FF0FE
:102950000100F0E710B540F225511548FFF773FA72
:1029600088B11348FFF7D8F91C49897F1B4A505496
:102970001046817F807F401C9077042903D14FF05F
:1029800000001146887740F227710948FFF75BFA8B
:1029900030B31248C27F401D815C0548FFF7B8F98B
:1029A0000E48C17FC07F401C0C4A1AE0000801405D
:1029B00000380140801A0600000C01400058004019
:1029C0005800024010580040420000204019010009
:1029D00018ED00E000E400E0280000205400002092
:1029E0000CE0D077182909D14FF000001146C877C4
:1029F000024640F227719648FFF714F910BD10B552
:102A000094499548FEF7EBFDE8B100219248FEF7A6
:102A1000B7FC9248007901280ED19048407958B10E
:102A20004FF001008D494871084601784FF00102CE
:102A30008948FEF7EFFC5EE088480178002286486E
:102A4000FEF7E8FC57E08349491C8348FEF7C7FDC1
:102A500000B383480088C4B282480088C4B27F486B
:102A60000079012810D17D48407968B100217A4869
:102A7000FEF786FC01217848FEF775FC01229102E1
:102A80007548FEF7B2FC04E0012291027248FEF79D
:102A9000ACFC30E074497048FEF7A1FD78B16E4897
:102AA000FEF7B4FC6D49C87000224FF480616A489B
:102AB000FEF79BFC4FF001006849C8711BE06A49B2
:102AC00040316548FEF78BFDA8B1644881786248C3
:102AD000FEF79AFC4FF00100604948710846007902
:102AE000012804D1002281025B48FEF77EFC01210F
:102AF0005948FEF72BFC5948C079002861D0574847
:102B0000407800F007044FF000005449C871487144
:102B10000846407800F0F000102809D0202802D0A4
:102B200030280CD10AE04D48C0785049085507E0DC
:102B30004A48C1784D48801D015501E000E000BFC2
:102B400000BF052C13DA4548407800F101004349E5
:102B500048700846807800F1010088704FF000004E
:102B600048714FF001013C48FEF7F0FB28E03B487C
:102B70004078A0F11000394948700846407800F0CC
:102B8000F00020281CD00846407800F0F000102803
:102B90000DD12821D020FFF7C9FE4FF010002F499A
:102BA00048704FF001012C48FEF7D0FB08E04FF0D1
:102BB00000002A4948704FF001012748FEF7D3FB77
:102BC00000BF10BD70B52648048800BF14F4A06F84
:102BD00003D001212048FEF7C6FB14F4E06F0CD0AF
:102BE000234805884FF000024FF480611A48FEF731
:102BF000FCFB01211848FEF7A9FB1948008820F4C6
:102C00007060174908804FF001001449C87170BD09
:102C10001848008800F1010016490880084600881D
:102C20004FF4C87190FBF1F201FB120018B94FF09C
:102C30000100104988700F480088052190FBF1F2CF
:102C400001FB120018B94FF001000A49C870704723
:102C50000038014001000002005800402800002018
:102C60001458004018580040400000063C00002066
:102C70001854004030000020F0B5059D4FF00004CE
:102C80000CE006680F683E44166000F1040001F194
:102C9000040102F1040204F1010674B203FB05F61B
:102CA000A642EEDCF0BD08B506200346FC4A02F55C
:102CB00010710090A1F53470FFF7DEFFF9A001F06C
:102CC000D5FE2421F64801F0ACF908BD2DE9FE4FF0
:102CD00005460C9C4FF00006374630460295884664
:102CE00000BF09E04FF0000BC2F800B002F104028F
:102CF00000F1010B0BF0FF0003FB04FB8345F1DC4B
:102D000003FB04FBA2EB8B024FF0000046E04FF008
:102D1000000BCDF800B0029D90FBF4FB0BFB04FB15
:102D200005EB8B05414690FBF3FB03FB1B0B01EB13
:102D30008B014FF0000C22E005EB8709D9F800A0C9
:102D400001EB8609D9F800B0CDF804B0DDF804B085
:102D50000AFB0BFB4FF47A7E9BFBFEFEDDF800B016
:102D6000F344CDF800B007F1010B0BF0FF0706EBC1
:102D7000040B0BF0FF060CF1010B0BF0FF0CA4454C
:102D8000DADB4FF000063746DDF800B0C2F800B0DD
:102D900002F1040200F1010B0BF0FF0003FB04FB46
:102DA0008345B4DCBDE8FE8F38B506200346C04A33
:102DB000A2F57C710090A1F5F070FFF787FFBDA030
:102DC00001F054FE2421BA4801F02BF94FF0000421
:102DD00012E004EB440004EB4001B54850F8210038
:102DE000C0F57A7104EB440004EB4002B04840F8AF
:102DF000221004F10100C4B2062CEADBAFA001F0FE
:102E000035FE2421AA4801F00CF906200346A44A05
:102E1000903AA3490090A648FFF758FFA9A001F0F7
:102E200025FE24219E48903801F0FBF838BD30B5CE
:102E30008DB04FF000042AE04FF0000007A941F8E0
:102E4000240005461EE004EB440005EB40019448D5
:102E500000F1900050F821009149A1F1C00151F812
:102E6000251000FB01F04FF47A7190FBF1F007A9F7
:102E700051F82410A1EB000007A941F8240005F146
:102E80000100C5B2062DDEDB04F10100C4B2062C40
:102E9000D2DB8EA001F0EAFD062107A801F0C1F8FF
:102EA0000620012307AA07A900907D48A838FFF74C
:102EB000E3FE8AA001F0DAFD062107A801F0B1F8CF
:102EC0004FF0000425E04FF0000001A941F8240074
:102ED000054619E004EB440005EB4000834951F836
:102EE000200007A951F8251000FB01F04FF47A717A
:102EF00090FBF1F001A951F82410084401A941F810
:102F0000240005F10100C5B2062DE3DB04F1010048
:102F1000C4B2062CD7DB76A001F0A8FD062101A8DB
:102F200001F07FF806200123704A903201A9009039
:102F30001046FFF7A1FE70A001F098FD06216B4836
:102F4000903001F06EF80DB030BD2DE9FF4784469A
:102F50004FF00008CDF80880CDF80C80CDF8008047
:102F6000CDF8048040460BE0DCF80080C1F800801A
:102F700001F104010CF1040C00F101084FFA88F092
:102F80002428F1DBA1F19001ACF1900C4FF000008E
:102F900029E14FF00009C3B224E0C4B21CE003EB06
:102FA000430804EB48084FFA88F651F82680B8F138
:102FB000000F01DBC24601E0C8F1000A57464F4549
:102FC00006DDB9460DF1080808F800300DF800409C
:102FD00004F1010808F0FF04062CE0DB03F101080E
:102FE00008F0FF03062BD8DB0DF1080818F8008065
:102FF000804520D04FF000041BE000EB400804EBBC
:1030000048084FFA88F20DF1080818F8008008EB1C
:10301000480804EB48084FFA88F551F8227051F837
:10302000258041F8228041F8257004F1010808F05C
:10303000FF04052CE1DD1DF8008080451ED04FF017
:10304000000319E003EB430800EB48084FFA88F24D
:103050001DF8008003EB430A08EB4A084FFA88F595
:1030600051F8227051F8258041F8228041F82570EE
:1030700003F1010808F0FF03052BE3DD00EB400836
:1030800000EB48084FFA88F651F82680DFF870A068
:103090009AFBF8F841F826804FF000044AE000005F
:1030A000C40100200D0A342D2E4D5F7072653A0068
:1030B000440600200D0A3320613A00000D0A332037
:1030C000623A00000D0A332D2E4D3A000D0A3220CF
:1030D000622E282D482A53293A0000000D0A32207A
:1030E000632E28782D482A53293A000074000020C6
:1030F0000D0A3220643A00000D0A322D2E533A0098
:1031000040420F00844211D000EB400804EB480815
:103110004FFA88F251F8228051F826A008FB0AF8ED
:103120004FF47A7A98FBFAF841F8228004F101080A
:1031300008F0FF04062CE5DB4FF000032EE083428D
:1031400028D04FF0000423E084421DD003EB430855
:1031500004EB48084FFA88F203EB430800EB4808F9
:1031600051F8288000EB400A04EB4A0A51F82AA0E3
:1031700008FB0AF84FF47A7A98FBFAF851F822A083
:10318000AAEB080841F8228004F1010808F0FF04C6
:10319000062CD9DB03F1010808F0FF03062BCEDB78
:1031A0004FF0000319E0834213D003EB430800EB18
:1031B00048084FFA88F251F82280C8F1000851F807
:1031C00026A008FB0AF84FF47A7A98FBFAF841F83F
:1031D000228003F1010808F0FF03062BE3DB00F176
:1031E00001084FFA88F00628FFF6D3AE4FF005002D
:1031F0004DE01DF8008080451ED04FF0000419E01E
:1032000000EB400804EB48084FFA88F21DF80080F4
:1032100008EB480804EB48084FFA88F551F822708B
:1032200051F8258041F8228041F8257004F1010809
:1032300008F0FF04062CE3DB0DF1080818F8008005
:10324000804520D04FF000031BE003EB430800EB68
:1032500048084FFA88F20DF1080818F8008003EBCF
:10326000430A08EB4A084FFA88F551F8227051F8E2
:10327000258041F8228041F8257003F1010808F00B
:10328000FF03062BE1DBA0F101084FFA88F00028CC
:10329000AFDABDE8FF87F0B5A5B006200346F74AD0
:1032A000A2F53471009001F19000FFF70FFDF4A03A
:1032B00001F0DCFB2421F14800F0B3FE4FF00004E4
:1032C00036E04FF000052EE004EB440005EB400033
:1032D000C7B24FF00000EE4941F8270006461DE056
:1032E00004EB440006EB4001E44850F8210005EBF4
:1032F000450106EB4102E74951F8221000FB01F0BD
:103300004FF47A7190FBF1F0E14951F8271008442D
:10331000DF4941F8270006F10100C6B2062EDFDBC7
:1033200005F10100C5B2062DCEDB04F10100C4B2E7
:10333000062CC6DBD8A001F099FB2421D44800F06C
:1033400070FE0620034601AAD149009001F51C70C9
:10335000FFF792FCD2A001F089FB242101A800F024
:1033600060FEC64901A8FFF7F0FDCFA001F07EFB8B
:103370002421C24800F055FE4FF000043EE04FF01B
:10338000000536E004EB440005EB4000C7B24FF007
:103390000001BA4800F1900040F827100E4623E0E3
:1033A00004EB440006EB4001BA48A0F1900050F84D
:1033B000210005EB450106EB4102B64951F8221008
:1033C00000FB01F04FF47A7190FBF1F1AB4800F192
:1033D000900050F827000144A84800F1900040F800
:1033E000271006F10100C6B2062ED9DB05F1010057
:1033F000C5B2062DC6DB04F10100C4B2062CBEDB4B
:10340000AEA001F033FB24219C48903000F009FE6F
:10341000062003469E4A9949009001F19000FFF76B
:1034200055FCA8A001F022FB2421994800F0F9FDE9
:1034300025B0F0BD10B5FFF72EFFFFF7F8FCFFF742
:10344000B3FCFFF730FC10BD4FF0000008E04FF078
:103450000A028F4901F1900141F8202000F101009A
:103460000628F4DB4FF0000011E04FF0000297490E
:1034700041F8202001F1900141F82020854941F8D0
:10348000202001F1900141F8202000F101002428C2
:10349000EBDB4FF47A717E4AC2F800130A467C498E
:1034A000C1F81C23C1F83823C1F85423C1F8702394
:1034B000C1F88C234FF0FA01754AC2F890130A46FE
:1034C0007349C1F8AC23C1F8C823C1F8E423C1F89B
:1034D0000024C1F81C2444F247216D4AC2F8E011CF
:1034E0000A466B49C1F8FC21C1F8182242F6A442F1
:1034F000C1F83422C1F85022C1F86C224FF0FA0111
:10350000634AC2F870120A466149C1F88C22C1F8B8
:10351000A8224FF00502C1F8C422C1F8E022C1F888
:10352000FC224FF0FA015A4AC2F8C0100A46584924
:10353000C1F8DC20C1F8F8204FF00502C1F81421D1
:10354000C1F83021C1F84C217047F0B5044615464A
:103550001E4630464FF000020FE054F822703BB296
:103560000B5400F1010738B2C3F307270F5400F1E1
:10357000010738B202F101073AB2AA42EDDBF0BD11
:103580002DE9F0474FF000063DE0514A52F8261071
:10359000183A52F8260000F028FE01464C4800F187
:1035A000780040F82610A0F1900252F82610484A00
:1035B00052F8260000F019FE0446454850F826103F
:1035C000204600F012FE4249603141F82600A1F188
:1035D000480252F82610483252F8260000F0ADFD9D
:1035E0003B49603141F826000A4652F8261018324D
:1035F00052F8260000F02FFE3549903941F8260098
:1036000006F1010006B2062EBFDB4FF0000630E0E7
:103610002F4A783A52F82610783252F8260000F0F5
:10362000E4FD04462A48483850F82610204600F0A9
:10363000D9FD2749783141F826000A4652F826106C
:10364000A2F5847252F8260000F0CFFD20496031C7
:1036500041F826000A4652F82610D83A52F82600B9
:1036600000F06BFD1A49783941F8260006F1010097
:1036700006B2062ECCDB4FF0000652E09404002088
:103680000D0A3120612E482A4D5F7072653A0000A4
:1036900074000020540200200D0A3120623A00001C
:1036A0000D0A3120633A00000D0A3120642E2843B0
:1036B0002B4D5F70726529696E763A000D0A3120D4
:1036C000663A00000D0A312D2E4B3A00740300209B
:1036D00064070020FE4A52F82610903A52F826005D
:1036E00000F083FD814600F02EFF07460022F94BD3
:1036F00000F094FE044600F03CFFF549783141F8B3
:103700002600A1F1900252F82610903252F82600BD
:1037100000F06BFDEE49303941F8260006F101005A
:1037200006B2062ED6DB4FF000060FE0E84A48321C
:1037300052F82610783A52F8260000F0FEFCE449D0
:10374000183941F8260006F1010006B2062EEDDB1D
:10375000DF4890388069DE499039C1F80801084691
:10376000C169C0F80C11016AC0F810110146486A1D
:1037700000F0E9FE04460022D74B00F052FE074657
:10378000D64AD74B00F04DFE814600F0F2FED049FC
:103790009039C1F81401886A00F0D5FE81460022F4
:1037A000CD4B00F03EFE0446CC4ACD4B00F039FE36
:1037B000074600F0DEFEC6499039C1F81801C86A14
:1037C00000F0C1FE07460022C34B00F02AFE04466B
:1037D000C24AC34B00F025FE814600F0CAFEBC4938
:1037E0009039C1F81C01BDE8F0874FF0000008E0F7
:1037F0004FF00002B649A1F1780141F8202000F114
:1038000001000628F4DB4FF0000013E04FF0000247
:10381000AF4901F1300141F8202001F1180141F8D0
:103820002020AB4941F8202001F1180141F8202067
:1038300000F101000628E9DBAA49A54AA2F190029D
:10384000C2F8D8100A46A249A1F19001C1F8DC20C3
:10385000C1F8E020C1F8E420C1F8E820C1F8EC206C
:10386000A1499B4AA2F19002C2F890100A469849D9
:10387000A1F19001C1F89420C1F898209B4AC1F8A9
:103880009C20C1F8A020C1F8A4209949904AA2F137
:103890009002C2F8A8100A468D49A1F19001C1F822
:1038A000AC20C1F8B020C1F8B420C1F8B820C1F8EC
:1038B000BC201146864AA2F1900211660A4684494C
:1038C000A1F190014A668A66CA660A674A6770472C
:1038D0002DE9F84F80460D4691469A4654464FF0E2
:1038E000000619E058F82600824900F07EFC00909E
:1038F00000F010FE07B207F0FF0B05F804B004F16A
:10390000010004B2C7F3072B05F804B004F101006D
:1039100004B206F1010006B24E45E3DBBDE8F88FC4
:1039200000B59BB07448C06808907348C0680790A1
:10393000089900F05AFC0A906F48806806906E481B
:1039400080680590069900F050FC08906A4840682D
:103950000490694840680390049900F046FC069082
:10396000654800680490644800680390049900F07A
:103970003CFC0590069900F0E0FB0790089900F0E8
:10398000DCFB09900A9900F0D8FB0B9000F0DBFDFE
:10399000CDE90C0102F0D2FBCDE90E0100F0E9FD0A
:1039A0001A90554800680F901A9900F054FC52493B
:1039B0000860084640680F901A9900F04CFC4E4988
:1039C0004860084680680F901A9900F044FC4A4904
:1039D00088600846C0680F901A9900F03CFC464980
:1039E000C8603B489038D0F81401099000F0ABFD56
:1039F0000022424BCDE90A0100F013FDCDE90C0194
:103A000002F0EEFACDE90E0100F0B3FD149030485B
:103A10009038D0F81401099000F095FD0022374B42
:103A2000CDE90A0100F0FDFCCDE90C0102F02EFB0E
:103A3000CDE90E0100F09DFD159025489038D0F895
:103A40001801099000F07FFD00222C4BCDE90A01FE
:103A500000F0E7FCCDE90C0102F0C2FACDE90E015D
:103A600000F087FD12901A489038D0F8180109909C
:103A700000F069FD0022214BCDE90A0100F0D1FCE4
:103A8000CDE90C0102F002FBCDE90E0100F071FD61
:103A900013900F489038D0F81C01099000F053FDA6
:103AA0000022164BCDE90A0100F0BBFCCDE90C0168
:103AB00002F096FACDE90E0100F05BFD109004488B
:103AC0009038D0F81C01099000F03DFD002217E06D
:103AD000640700200000F03F000024405F40D42233
:103AE00047DF913FBD370635008E844600D8FF473B
:103AF00000409C4700007A44F40700200000E03FAB
:103B0000F44BCDE90A0100F08CFCCDE90C0102F088
:103B1000BDFACDE90E0100F02CFD11901599139816
:103B200000F063FB0D90119900F05FFB0F9014996A
:103B3000129800F05AFB0D90109900F056FB0E9071
:103B40000F9900F0FAFA1990DDE9130100F04DFB2E
:103B50000D90119900F049FB0F901599129800F003
:103B600044FB0D90109900F040FB0E900F9900F06F
:103B7000E4FA18901599139800F037FB0D901099FE
:103B800000F033FB0F901499129800F02EFB0D906B
:103B9000119900F02AFB0E900F9900F020FB17906E
:103BA0001599129800F021FB0D90119900F01DFB62
:103BB0000F90DDE9130100F018FB0D90109900F053
:103BC00014FB0E900F9900F00AFB1690C248C068D3
:103BD0000D90169900F009FB0F90BF4880680B907C
:103BE000179900F002FB0D90BB48406809901899A6
:103BF00000F0FBFA0B90B84800680990199900F0A2
:103C0000F4FA0A900B9900F0EAFA0C900D9900F082
:103C1000E6FA0E900F9900F0E2FAAF490860084604
:103C2000C0680D90179900F0E0FA0F90AA488068DC
:103C30000B90169900F0D9FA0D90A74840680990AA
:103C4000199900F0D2FA0B90A348006809901899CE
:103C500000F0CBFA0A900B9900F06FFA0C900D99D6
:103C600000F06BFA0E900F9900F0B9FA9A4948608B
:103C70000846C0680D90189900F0B7FA0F90964862
:103C800080680B90199900F0B0FA0D909248406846
:103C90000990169900F0A9FA0B908F4800680990D6
:103CA000179900F0A2FA0A900B9900F098FA0C907C
:103CB0000D9900F042FA0E900F9900F03EFA8649F5
:103CC00088600846C0680D90199900F08EFA0F9030
:103CD000814880680B90189900F087FA0D907E4813
:103CE00040680990179900F080FA0B907A480068B4
:103CF0000990169900F079FA0A900B9900F01DFAD4
:103D00000C900D9900F06BFA0E900F9900F015FAD7
:103D10007149C8600846C0680690084680680590EA
:103D2000069900F062FA08906B48406806906A486D
:103D300000680590069900F058FA0790089900F07D
:103D40004EFA099000F0FFFB00224FF08043CDE9CE
:103D50000A0100F066FBCDE90C0101F02FFECDE970
:103D60000E0100F006FC5C49886508464068029038
:103D7000084640680190029900F037FA04905648CE
:103D8000C06802905448C0680190029900F02DFA72
:103D90000390049900F0D1F9059000F0D4FB0022C3
:103DA0004FF08043CDE9060100F03BFB00224B4B76
:103DB000CDE9080100F032FBCDE90C0146488068EE
:103DC0000490454840680390049900F00EFA06906C
:103DD0004148C0680490404800680390049900F08E
:103DE00004FA0590069900F0A8F9079000F0ABFBE3
:103DF00000224FF08043CDE9080100F012FBCDE92D
:103E00000A01DDE90C2302F02BF8CDE90E0100F0E8
:103E1000B0FB3149C8650846806803900846806851
:103E20000290039900F0E1F905902B484068039057
:103E3000294840680290039900F0D7F90490059949
:103E400000F07BF94FF08041069000F0CEF907902A
:103E500000F079FB0022214BCDE9080100F0DEFAE9
:103E6000CDE90C011C48406805901B48C0680490CF
:103E7000059900F0BAF90790174880680590164830
:103E800000680490059900F0B0F90690079900F0D9
:103E900054F94FF08041089000F0A7F9099000F024
:103EA00052FBCDE90A01DDE90C2301F0D9FFCDE990
:103EB0000E0100F05EFB084908661BB000BD4FF024
:103EC0007E50054908604FF0000048608860C86077
:103ED000704700000000E03FF40700200000F03FC2
:103EE000EEB04FF0900267494AA800F001F94FF098
:103EF0009002644901F1900126A800F0F9F84FF012
:103F0000900102A800F00DF94AAE26AF02AC0620DF
:103F100003462246394600903046FEF7ADFE5AA0D1
:103F200000F0A4FD4FF0000508E05CA0216800F05F
:103F30009DFD04F1040405F10100C5B2242DF4DB5C
:103F400002AC062003462246394600903046FEF772
:103F5000BDFE53A000F08AFD4FF0000508E04FA021
:103F6000216800F083FD04F1040405F10100C5B2ED
:103F7000242DF4DB02AC21463046FEF7E6FF4EA0CE
:103F800000F074FD4FF0000508E044A0216800F047
:103F90006DFD04F1040405F10100C5B2242DF4DB2C
:103FA00000BFFEE70120704710B54949B1F90C0088
:103FB00000F0A7FA474988644549B1F90E0000F0BE
:103FC000A0FA4449C8644249B1F9100000F099FAD6
:103FD000404908653E49B1F9120000F092FA3D49A6
:103FE00048653B49B1F9140000F08BFA39498865FE
:103FF0003749B1F9160000F084FA3649C8654FF028
:10400000000409E03348183050F82410183040F804
:10401000241004F1010004B2062CF3DBFFF7B0FA20
:1040200010BD70B505460E464FF0000406E055F889
:1040300024101AA000F01AFD04F10104B442F6DBCA
:1040400070BD2DE9FF47FFF76BFC2349C86800F0FE
:104050007AFA04460D462049886800F074FA06464C
:104060000F461D49486800F06EFA804642460B46EE
:104070001AA0CDE90067CDE9024500F0F7FCBDE8E4
:10408000FF870000886100080D0A6D61747269780D
:104090002073756D2069733A200D0A002564200095
:1040A0000A6D6174726978206D756C7469706C79D1
:1040B0002069733A0D0A00000D0A6D617472697807
:1040C00020696E766572732069733A0D0A000000EC
:1040D0003C000020D4060020F40700200D0A513ACD
:1040E00025366620253666202536667C00000000D1
:1040F00040EA01039B0703D009E008C9121F08C06A
:10410000042AFAD203E011F8013B00F8013B521EE9
:10411000F9D27047D2B201E000F8012B491EFBD260
:1041200070470022F6E710B50446084611460246DD
:104130002046FFF7EFFF204610BDF0B480EA0102F1
:10414000D20F4300B3EB410F02D203460846194693
:104150004B0042D0C30DDDB2C1F3C7542C1B202C41
:1041600035DAC1F3160141F4000502B16D42C4F124
:10417000200605FA06F125412844B3EBD05F23D091
:10418000C2B1012CA0EBC35009DCF0BC4FF00042DF
:1041900002EAC35200F50000DBB200F077BA40003B
:1041A00000F1807000EBC350A0F1807040EAD17044
:1041B000490009E0490841EAC071A0EBC35000F58D
:1041C0000000400800EBC350F0BC00F056BA51426A
:1041D000012303EB4101801AF6E7F0BC704781F040
:1041E0000041AAE780F00040A7E780EA010210B58D
:1041F00002F00042400026D04B0023D04FEA10616D
:1042000001EB1361C0F35600C3F3560340F4000002
:1042100043F40003A0FB0330A1F17F014FEA00400B
:104220001C0401D000F1010050EA134001D4400009
:10423000491EC3B20C0604EBD010401C4008802B72
:1042400002D003E0002010BD20F00100002900DAB8
:104250000020104310BD80EA010202F0004330B498
:1042600030F0004221F0004015D0A0B1C0F3C75596
:10427000C2F3C754C2F31601C0F31600651B41F424
:10428000000140F400007D35814201D36D1C00E047
:104290004900002D02DA30BC002070474FF40002C4
:1042A0000024814201D3091A144352084FEA410104
:1042B000F7D151B1814202D14FF0004105E002D265
:1042C0004FF0010101E06FF0010104EBC55030BC7B
:1042D000184400F0D2B92DE9FE4F074681EA0300E9
:1042E000C00F0E46019021F0004123F00044B81A9F
:1042F000A14105D23846314617461E460B460246B6
:1043000023F00040104304D13846314603B0BDE8E5
:10431000F08F350DC5F30A00C3F30A510290401A1D
:104320000090402868DAC3F3130040F4801B019822
:10433000924620B10023D2EB030A63EB0B0B0098EB
:104340005946C0F14002504600F076F980460C46CE
:1043500050465946009A00F07EF9C0197141EF1796
:1043600085EA11533B4340D0019A52B3009A012A87
:1043700011DC0022801A4FF0004361EB055103EA83
:1043800005538018CDE9002341F5801142462346AC
:1043900000F0B6F9BAE72E050025401B61EB0601D7
:1043A000401941F58012001852412818A6F5001353
:1043B00043EB020140EAD470294318EB080864413A
:1043C00013E064084FEA38084FF0000244EAC07472
:1043D0004FEA0553801A61EB0301801841F5801103
:1043E00049084FEA3000801859414246234603B03D
:1043F000BDE8F04F00F077B901980122400000239A
:10440000D0EB020263EBE07301984FEAE074381AD4
:1044100066EB0401EBE783F000435CE781F00041C9
:1044200059E72DE9FE4F81EA030421F0004504F02D
:10443000004423F000414FF0000A009450EA0503C5
:1044400002D052EA010304D10020014603B0BDE8C6
:10445000F08FC1F30A53C5F30A541C44A0FB02B306
:10446000C5F3130545F4801CC1F3130141F4801812
:104470000CFB023300FB083EA4F2F334810A930ADA
:1044800041EA8C5143EA88530194A1FB03474FEA68
:104490009C2505FB03734FEA982601FB06373D0573
:1044A000260545EA1435BBEB06016EEB0503850EC8
:1044B000920E45EA8C1542EA8812A5FB0206261EDA
:1044C00067EB00070C0D44EA0334A41947EB1350C3
:1044D000C1F313064FF0000319464FEA033343EAD2
:1044E000165343EA0403019CE5FB0201A4F10C040A
:1044F0000294009C4FEA0632CDE900A400F000F9D6
:10450000A4E7C10F80EAE0700844CA07962300219F
:1045100000F0BCB800F0004220F00040C10DC0F334
:10452000160040F400007F2901DA00207047962928
:1045300003DCC1F19601C84001E096398840002AA9
:10454000F4D04042704700F0004230F000400DD0FF
:10455000C10D01F5607142EA01510022C0F316005D
:10456000520742EAD002400711437047002001463B
:10457000704701F0004230B421F0004150EA0103DD
:1045800006D00B0DA3F56073C1F31301002B02DC01
:1045900030BC00207047440F44EAC104C100A01899
:1045A00030BC00EBC35000F068B830B50B46014694
:1045B00000202022012409E021FA02F59D4205D3C2
:1045C00003FA02F5491B04FA02F52844151EA2F16C
:1045D0000102F1DC30BD2DE9F05F05460020924676
:1045E0009B4688460646814640241BE028464146B5
:1045F0004746224600F0ECF952465B46801A994144
:1046000010D310461946224600F016F82D1A67EB13
:1046100001084F4622460120002100F00DF817EB5B
:1046200000094E41201EA4F10104DFDC484631465A
:104630002A464346BDE8F09F202A04DB203A00FAD0
:1046400002F1002070479140C2F1200320FA03F3E9
:10465000194390407047202A06DBCB17203A41FAD5
:1046600002F043EAE071704741FA02F3D040C2F130
:10467000200291400843194670470029A8BF70479F
:10468000401C490008BF20F00100704710B4B0FA88
:1046900080FC00FA0CF050EA010404BF10BC704723
:1046A00049B1CCF1200421FA04F411FA0CF118BF3D
:1046B000012121430843A3EB0C01CB1D0106000A95
:1046C000002BBEBF002010BC704700EBC35010444D
:1046D0000029A4BF10BC7047401C490008BF20F04F
:1046E000010010BC704710B5002B08DA401C41F1E6
:1046F000000192185B411A4301D120F0010010BD66
:104700002DE9F04D92469B4611B1B1FA81F202E0DB
:10471000B0FA80F220329046FFF78EFF06460F4631
:1047200040EA0A0041EA0B0152465B46084303D1C6
:1047300030463946BDE8F08D194652EA010015D0E1
:10474000C8F14002504600F043F904460D46504679
:1047500059464246FFF770FF084301D0012000E0B0
:104760000020044345EAE07526432F430A984FEAA8
:10477000D625A0EB08000A304FEA46534FF000025E
:1047800045EA47554FEAD72402D500200146D1E734
:10479000010550196141DDE9084500196941BDE88D
:1047A000F04DA0E72DE9F04D81EA030404F0004B41
:1047B00021F0004714464FF0000A23F0004150EA70
:1047C000070220D054EA01021DD0C1F30A55024667
:1047D000C1F31300C7F30A56C7F3130340F4801163
:1047E00043F48013A6EB0508101BD64608F2FD38EB
:1047F00073EB010002D308F1010801E092185B415C
:10480000B8F1000F03DA00200146BDE8F08D00206A
:104810004FF48015064607460EE0B2EB040C73EB2E
:10482000010C04D3121B064363EB01032F436D08F5
:104830004FEA300092185B4150EA050CEDD152EA84
:10484000030012D082EA040083EA0105284303D161
:1048500000224FF0004308E0101B8B4102D20122DE
:10486000002302E06FF0010253101AEB060047EB41
:10487000085110EB0A0041EB0B01BDE8F04DFFF7CA
:1048800032BF70B521F0004303430CD0C1F30A548A
:104890000026D4EB060566EB0603D417AD1AA34138
:1048A00002DB0020014670BD001C41EB025170BDCF
:1048B0002DE9F04D00231A461B1A8A4103DB002024
:1048C0000146BDE8F08DC1F30A52C1F3130141F472
:1048D00080154FF0000BD10702D100186D41521E18
:1048E0000026044640F2FF11304601EB620A3746CB
:1048F0008046024600204FF4801100F069F88019CC
:104900007941331847EB0102B4EB030C75EB020C51
:1049100004D3E41A65EB020506460F46241908F194
:1049200001006D4180463428E3DDB11947EB0700F3
:10493000091BA84103D24FF0FF32134601E00022C9
:1049400013461BEB060047EB0A51BDE8F04DFFF79D
:10495000CABEC1F30A52C1F3130140F2FF3341F45E
:1049600080119A4202DA00200146704740F2334338
:104970009A42A2F2334202DC524200F029B8FFF719
:104980005BBE000030B5002904DB4FF0004440421C
:1049900064EB0101002B04DB4FF00044524264EB56
:1049A0000303994208BF904230BD0000064C074DFA
:1049B00006E0E06840F0010394E8070098471034EF
:1049C000AC42F6D3FBF796FBB8640008D864000845
:1049D000202A04DB203A21FA02F00021704721FA54
:1049E00002F3D040C2F120029140084319467047BB
:1049F0000EB5C10F80EAE0700844CA07002140F2FA
:104A000033438DE80E000A460B46FFF779FE03B0EC
:104A100000BD0EB540F2334102910021CDE90011F5
:104A20000A460B46FFF76CFE03B000BD70B5C1F33C
:104A30000A5201F000450024C1F3130140F2FF3394
:104A400041F480119A4201DA002070BD40F23343F4
:104A50009A42A2F2334203DC5242FFF7B9FF00E070
:104A600090402C43F1D0404270BD00000FB4054B84
:104A700010B503A9044A029800F0F2FB10BC5DF8DF
:104A800014FB00008923000834000020490050EA8C
:104A9000C12018BF04204A0D18BF40F0010040F2A9
:104AA000FF72B2EB515F08BF40F00200012808BF5F
:104AB000052070472DE9F74F144696B00021C4E950
:104AC00002111799099121F00047C9498F4206DC6C
:104AD0001799C4E9000119B00020BDE8F08FC5495D
:104AE000C54EB94241DD0999DFF81083DFF810A304
:104AF000C44A00291BDD33461799FFF78CFCB742E7
:104B000006D0C14AC14BFFF786FCC4E900010AE0A8
:104B10004FF0D352BD4BFFF77EFC42465346FFF7A2
:104B20007AFCC4E9000119B00120BDE8F08F3546D8
:104B300033461799FFF7CFFBAF4206D0B24AB34BCB
:104B4000FFF7C9FBC4E900010AE04FF0D352AF4BB5
:104B5000FFF7C1FB42465346FFF7BDFBC4E9000126
:104B600019B04FF0FF30BDE8F08FA9498F42179977
:104B700077DC21F000458346A64AA74B2946FFF77C
:104B800050FC0022A54BFFF7A6FBFFF74FFF0A9052
:104B9000FFF72EFF80468A469A4A3346FFF741FCCC
:104BA0002B465A46FFF73AFC05460E46964A974B67
:104BB00040465146FFF735FC3A0D01270C922A4634
:104BC0003346FFF72BFC032FC4E9000138D00C98C3
:104BD000C1F30A51401A07EB4711113988422FDD02
:104BE0008F480096784400EB07100D90D0E9002321
:104BF000AB4640465146FFF714FCCDE9040102469E
:104C00000B4658460099FFF706FC05460E4602463D
:104C10000B4658460099FFF7FEFBDDE90423FFF73A
:104C2000FAFB83460D9804915146D0E90223404691
:104C3000FFF7F7FB5A46049BFFF7EDFB7F1CBEE72F
:104C400009980028A2BF0A9819B0BDE8F08F6168E2
:104C500081F0004161600A9819B04042BDE8F08FD0
:104C6000FFE784461798C1F31301C0F30A5041F4DB
:104C70008011A0F2F5300591411100F01F08C8F134
:104C8000200012900020109011906648784400EBAC
:104C9000810000F1140311A8062719685D68129AB3
:104CA00001FA08F125FA02F21143059AD0F800A0A2
:104CB000A1FB0256A1FB0C2192440D44924534BF46
:104CC0004FF0010B4FF0000B50F8042C05EB0B0ECE
:104CD00072448D4234BF012100213144BBF1000FE9
:104CE00002D0AA4202D903E0AA4201D2012500E083
:104CF00000252944C0F800A040E902121B1F001F34
:104D00007F1ECAD10C980F9F00F10050800F1290A7
:104D10000C98DDE90D568000FFF76AFECDE9080129
:104D20002846FFF776FE6FF01D02FFF7AAFDCDE9DA
:104D300006013046FFF76DFE6FF03D02FFF7A1FD63
:104D400082468B463846FFF764FE6FF05D02FFF740
:104D500098FD0746884652465B46FFF7BCFADDE9F8
:104D60000623FFF7B8FADDE90823FFF7B4FADDE917
:104D7000082300250E462846FFF74DFBDDE90623F4
:104D8000FFF749FB52465B46FFF745FB3A46434671
:104D9000FFF744FBDFF894A0234A5346FFF741FB9B
:104DA00080460F46224A234B31462846FFF739FBFF
:104DB00042463B46FFF78FFA074688464FF0A84227
:104DC000534631462846FFF72CFB3A464346FFF749
:104DD00082FA179A12F0004F04D0129A81F0004123
:104DE00052421292C4E90001129819B0BDE8F08F46
:104DF000FB21E93F7CD90240FB21F93F7370032E70
:104E00008A19A33B000040543163621A61B4D03D5B
:104E1000FB21394183C8C96D305FE43F0000E03FAA
:104E2000E017000068170000182D4454FB21F93DDD
:104E30003326A611460B113C2DE9FF4D21F0004809
:104E400007460C46B8F1795F08DAFFF7EFFD002856
:104E500001BF0020324904B0BDE8F08D3A46234638
:104E600010461946FFF7DDFA054602462D480E4664
:104E70000B460621784400F05DF82A463346FFF7DA
:104E8000D0FADDE9022382468B4638462146FFF7F9
:104E9000C8FA04460F4652465B4628463146FFF79D
:104EA000C0FA22463B46FFF7B6FA07468A464FF05D
:104EB000FF3228463146FFF7E4FC1B4A90450ADAE8
:104EC0003A465346FFF7A7FA04B00022BDE8F04D7A
:104ED000134BFFF7A3BA154A4245A8BFA8F5001522
:104EE0004FF00004B8BF124D22462B46FFF793FA4D
:104EF0000646884622462B4600200949FFF78BFAD2
:104F000004460D463A46534630464146FFF783FA7B
:104F100004B022462B46BDE8F04DFFF77FBA0000F3
:104F20000000F03F181500003333D33F0000E93F85
:104F30000000D23F2DE9F0414F1E00EBC7010446AF
:104F4000D1E9000115461E4637F006020DD02A466B
:104F50003346FFF766FA7F1E04EBC703D3E900234D
:104F6000FFF7B9F937F00602F1D1022F25D0042F4F
:104F700013D0062F18BFBDE8F0812A463346FFF74D
:104F800050FAD4E90A23FFF7A6F92A463346FFF779
:104F900048FAD4E90823FFF79EF92A463346FFF77B
:104FA00040FAD4E90623FFF796F92A463346FFF77D
:104FB00038FAD4E90423FFF78EF92A463346FFF77F
:104FC00030FAD4E90223FFF786F92A463346FFF781
:104FD00028FAD4E90023BDE8F041FFF77CB90000CE
:104FE0002DE9FF4D054621F0004084B00C46B0F19C
:104FF000795F0BDA2846FFF749FD042808BF00F067
:1050000067F8284608B02146BDE8F08D2A460B46D1
:1050100010462146FFF705FA06460F462A46234664
:10502000FFF7FFF9804627488A4632463B4605216E
:105030007844FFF77FFF83461098029160B3224ABD
:10504000224B40465146FFF7ECF9CDE900015A46A4
:1050500040465146029BFFF7E4F982468846DDE967
:1050600006014FF0FF32FFF70CFC52464346FFF7B4
:10507000D2F932463B46FFF7D4F9DDE90623FFF7C4
:10508000CAF9DDE90023FFF7C6F908B02A4623462E
:10509000BDE8F04DFFF7C2B90B465A4630463946D7
:1050A000FFF7BFF9084A094BFFF715F94246534687
:1050B000FFF7B7F908B02A462346BDE8F04DFFF7E1
:1050C0000AB900005C140000495555555555C5BF37
:1050D000024A00201107FFF7D4BB000001FDFFFFCB
:1050E00002E008C8121F08C1002AFAD170477047B1
:1050F000002001E001C1121F002AFBD1704700000F
:105100000149086070470000380000202DE9FF5F6A
:10511000DDE90210020DDDF838B001430FD10F9820
:1051200001244AA3012807D000980F9AC0E9003152
:10513000C0E90242BDE8FF9F6FEA0B01F4E7A2F26B
:10514000FF3244F61050424315140F9801280ED038
:10515000A5EB0B00401C4FF000043D4EDFF8F4902F
:10516000B0F1000AA04605DACAF1000717E0CBF15A
:105170000000F0E7074612E0F80707D02246334662
:1051800040464946FFF74DF9804689462246334658
:1051900010461946FFF745F904460E467F10002FCA
:1051A000EAD1DDE90201BAF1000F42464B4602DACC
:1051B000FFF737F901E0FFF7F5FA04460E46002243
:1051C000254BFFF7DFFB03D84FF0FF30014607E028
:1051D0000022224B20463146FFF77DF8FFF7B9FB4E
:1051E000102409E0002C0ADB0A220023FFF7F3F960
:1051F000019B30321A55641E50EA0102F2D1641C40
:10520000019AC4F1110314440F9A012A07D0012214
:10521000084301D15B450DDD00226D1C0DE0084304
:1052200003D1A3EB0B056D1E09E000204FF0110B1D
:105230000F908AE701DA00226D1E002A85D00098BF
:105240000F99C0E90231C0E9004573E73000000062
:10525000000024400000F03F0000F0430000E03F69
:105260002DE9FF4F95B006469A468946002521E272
:10527000252801D01799A6E00024F9492746761C75
:105280004FF0010803943278203A08FA02F00842FD
:1052900002D00443761CF6E730782A2811D06FF04C
:1052A0002F023078A0F13001092916D8039944F073
:1052B000020401EB810102EB41010844761C0390DA
:1052C000EFE759F8041B0391002903DA484244F43C
:1052D0000054039044F00204761C30782E2816D136
:1052E00016F8010F44F004042A280DD06FF02F01A6
:1052F0003078A0F13002092A09D807EB870201EBC8
:1053000042028718761CF3E759F8047B761C307844
:105310006C280FD006DC4C2817D068280DD06A28DE
:1053200014D104E0742810D07A280FD10DE044F491
:1053300000140AE044F4801401E044F4401471784D
:10534000814202D1761C04F58014761C96F800C0C8
:10535000BCF1660F10D01ADCBCF1580F70D00CDC19
:10536000BCF1000F6DD0BCF1450FF3D0BCF1460F7E
:10537000F0D0BCF1470F24D1A4E1BCF1630F40D0C1
:10538000BCF1640F74D0BCF1650F1AD19AE1BCF185
:10539000700F6ED00CDCBCF1670FEDD0BCF1690F63
:1053A00075D0BCF16E0F12D0BCF16F0F09D1B3E014
:1053B000BCF1730F2FD0BCF1750F76D0BCF1780F14
:1053C00074D017996046524690476D1C70E1C4F343
:1053D0000250022809D003280DD0D9F80010042863
:1053E0000DD00D6009F1040962E1D9F80010EA1747
:1053F000C1E90052F6E7D9F800100D80F2E70D7010
:10540000F0E759F8041B8DF8001000208DF801001A
:10541000EB46012003E059F804BB4FF0FF30610771
:105420004FF0000102D40FE008F101018846B942B3
:1054300011DA8045F8DB1BF808100029F4D10AE0E6
:1054400060E03BE108F1010188468142FADB1BF88C
:1054500008100029F6D103985346A0EB080721460F
:105460003846179A00F091FA284400EB080506E048
:105470000DE049E01BF8010B524617999047B8F12F
:105480000108F7D2534621463846179A0DE10A2102
:10549000C4F302524FF0000B0091022A07D059F8D2
:1054A000040BC117032A0AD00BE024E025E009F120
:1054B000070020F00702F2E80201914605E000B281
:1054C000C117042A01D140B2C117002906DA0A46E1
:1054D0000021404261EB02012D2202E0220504D5A9
:1054E0002B228DF80420012203E0E20701D02022C4
:1054F000F7E7904654E00A2100E010214FF0000B3E
:1055000000910DE0102008E010204FF0000B44F057
:1055100004040827009003E008204FF0000B0090DF
:10552000C4F30252022A05D059F8040B0021032AC1
:1055300008D009E009F1070020F00702F2E80201B3
:10554000914605E080B20021042A01D1C0B20021B9
:105550004FF00008220723D5BCF1700F28D0009B24
:1055600083F0100353EA0B0309D150EA010206D07D
:1055700030228DF804208DF805C002229046009B51
:1055800083F0080353EA0B030AD150EA010201D168
:10559000620705D530228DF804204FF001087F1EE8
:1055A000BCF1580F09D02FA20C920CAA029211E064
:1055B00040228DF804200122E0E72FA2F4E75B46A9
:1055C000009AFFF708F80C9B9B5C029AA2F101027B
:1055D0000292137050EA0102F1D1029804A9A1EBE2
:1055E000000000F1200B600702D524F4803400E0B5
:1055F00001275F4502DDA7EB0B0000E0002000EB78
:105600000B01009003984144A0EB01000390E003DC
:1056100006D453462146179A039800F0B6F905447C
:10562000002706E001A85246C05D179990476D1CFF
:105630007F1C4745F6DBE0030CD553462146179AFD
:10564000039800F0A2F9054404E03020524617996F
:1056500090476D1C0099481E00900029F5DC1EE063
:105660000928010030313233343536373839616238
:1056700063646566000000003031323334353637FC
:1056800038394142434445460000000002980299DF
:1056900052460078491C0291179990476D1CBBF146
:1056A0000001ABF1010BF1DC50E100F05BF90544C6
:1056B00006F10106307800287FF4DAAD19B02846EB
:1056C000BDE8F08F600700D4062709F1070020F03D
:1056D0000701F1E80220894600F00043190001D0DB
:1056E0009DA109E0210501D59CA105E0E10701D0BC
:1056F0009BA101E0AFF2840120F000431391BCF1C3
:10570000650F11D009DCBCF1450F0DD0BCF1460F7F
:1057100020D0BCF1470F3ED13EE0BCF1660F19D05E
:10572000BCF1670F7CD137E00021112F01DB112084
:1057300000E0781CCDE9000104A90CA8FFF7E6FC05
:10574000DDE90D010C9A4FF0000B07F101081092F2
:1057500000914CE04FF000400097CDE9018004A992
:105760000CA8FFF7D3FCDDE90E20DDE90C314FF08A
:10577000000B90461093009218B907F1010001EB5D
:105780000008B7EB080003D4C0F1FF3B07F10108A4
:10579000A8EB0700019043E0012F00DA0127002168
:1057A000112F01DD112000E03846CDE9000104A9E8
:1057B0000CA8FFF7ABFCDDE90D010C9A00914FF04E
:1057C000000BB846109221070CD40099B94200DAB8
:1057D0008846B8F1010F05DD109AA8F10101515C6E
:1057E000302908D0B84202DA10F1040F06DA01219C
:1057F000CDE9011014E0A8F10101E9E7002803DC7C
:105800008344A8EB000102E0411C414500DD8846CD
:10581000A0EB0B0000F1010001904FF0004002905E
:10582000200705D40198404502DB4FF0FF3001907E
:1058300000208DF84B0002980DF14B07B0F1004F9E
:1058400026D002200C902B200D90029800280CDA14
:10585000404202902D200D9007E00A210298FEF7A9
:10586000A4FE3031029007F8011D0C99481E0C90DF
:105870000029F2DC02980028EFD1A7F101010D9870
:105880000870307800F0200040F0450007F8020D65
:1058900011A8A0EB070000F1070002901398007810
:1058A00000B1012000EB0801019801EBE0710298C2
:1058B00001440398A0EB0100A0F101000390E00374
:1058C00006D453462146179A039800F05EF8054423
:1058D0001398007820B152461799904705F10105B9
:1058E000E00322D553462146179A039800F04DF85D
:1058F00005441AE0BBF1000F07DB0098584504DDB2
:105900001098179910F80B0001E0179930205246B3
:10591000904701986D1C401E0BF1010B019004D1C2
:105920002E205246179990476D1CB8F10001A8F13E
:105930000108DFDC05E017F8010B52461799904784
:105940006D1C0299481E02900029F4DC5346214642
:10595000179A0398A9E600002D0000002B00000014
:10596000200000002DE9F0410446002517461E46A0
:10597000880405D406E039462020B04705F101052A
:10598000641EF8D52846BDE8F0812DE9F0410446B3
:10599000002590461E46C80301D5302700E0202789
:1059A000880405D506E041463846B04705F10105B3
:1059B000641EF8D52846BDE8F08100002DE9F04DC1
:1059C000914F21F0004A86B005460C46BA452FDBC0
:1059D000AAEB070028430BD08C48824501DC1BD181
:1059E000D5B106B02846BDE8F04D0122FEF749BF0B
:1059F000874A884B2846FEF714FD07460E46864A1E
:105A0000864B28462146FEF70CFD06B03A46334643
:105A1000BDE8F04DFEF75FBC0120FFF771FB06B05B
:105A20000022BDE8F04D134610461146FEF7BABEFF
:105A30007B48824543DABAF1795F0BDA2846FFF7F3
:105A400025F8042808BFFFF743FB284606B0214687
:105A5000BDE8F08D2A460B4610462146FEF7E1FCD4
:105A6000834602466F480E460B4606217844FFF7F0
:105A700061FA5A463346FEF7D4FC80466A488A46A5
:105A80005A46334604217844FFF754FA5A463346BF
:105A9000FEF7C7FC00223B46FEF71DFC02460B4604
:105AA00040465146FEF77EFE2A462346FEF7B9FCE5
:105AB00006B02A462346BDE8F04DFEF70CBC28464A
:105AC00024F0004100223D463B46FEF7A7FC4FF084
:105AD000FF32FEF7D6FE0646024654480F460B46F6
