:020000040800F2
:100000005004002001010008E5220008E722000852
:10001000EB220008EF220008F32200080000000095
:10002000000000000000000000000000F7220008AF
:10003000F922000800000000FB220008FD22000851
:100040001B0100081B0100081B0100081B01000820
:100050001B0100081B0100081B0100086D2300089C
:100060001B0100081B0100081B0100081B01000800
:100070001B0100081B0100081B01000805230008E4
:100080001B0100081B0100081B0100081B010008E0
:100090001B0100081B0100081B01000807230008C2
:1000A0001B0100081B0100081B0100081B010008C0
:1000B0001B0100081B0100081B0100081B010008B0
:1000C0001B010008D3230008DB2300081B010008E4
:1000D0001B0100081B0100081B0100081B01000890
:1000E0001B0100081B0100081B010008DFF80CD0F1
:1000F00002F078FF00480047372200085004002033
:100100000648804706480047FEE7FEE7FEE7FEE7B1
:10011000FEE7FEE7FEE7FEE7FEE7FEE7F501000883
:10012000ED0000084FF0000108466D4A126842F4E5
:1001300080326B4B1A6000BF694A126802F40030CB
:1001400001F1010110B9B1F5A06FF5D1644A12684F
:1001500012F4003F02D04FF0010001E04FF0000028
:10016000012842D15F4A126842F010025D4B1A60CA
:100170001A46126822F003021A601A46126842F008
:1001800002021A60564A5268554B5A601A46526823
:100190005A601A46526842F480625A601A4652689F
:1001A00022F47C125A601A46526842F4E8125A60ED
:1001B0001A46126842F080721A6000BF484A1268FC
:1001C00012F0007FFAD0464A526822F00302444BF4
:1001D0005A601A46526842F002025A6000BF404A12
:1001E000526802F00C02082AF9D1704710B5FFF7E7
:1001F00099FF10BD10B53A48006840F00100384939
:10020000086008464068384900EA010034494860FF
:1002100008460068354900EA01003149086008468F
:10022000006820F4802008600846406820F4FE0042
:1002300048604FF41F008860FFF7D8FF4FF0006060
:100240002B49086010BD10B54FF00001084602466A
:10025000234B5B6803F00C0121B1042906D0082967
:100260002CD107E0234B244C23602BE0214B224C64
:10027000236027E01A4B5B6803F47010184B5B682F
:1002800003F480324FF0020303EB90402AB91B4B7A
:1002900000FB03F3184C23600FE0114B5B6813F471
:1002A000003F05D0154B00FB03F3134C236004E023
:1002B000104B00FB03F3104C236003E00D4B0E4C7E
:1002C000236000BF00BF064B5B68C3F303130C4CF5
:1002D000E15C094B1B6823FA01F3074C236010BD56
:1002E00000100240002002400000FFF8FFFFF6FE71
:1002F00008ED00E000127A000000002000093D0037
:1003000004000020384940EA0101384A1160704772
:1003100070B54FF000010B464FF00F02C4784CB39C
:10032000324C246804F4E064C4F5E0644FEA14211C
:10033000C1F1040322FA01F2447804FA03F184784B
:1003400004EA020444EA01014FEA0111284C06784C
:10035000A155047804F01F054FF0010404FA05F4D8
:1003600005784FEA65154FF0E02606EB8505C5F8E0
:1003700000410CE0047804F01F054FF0010404FA7A
:1003800005F41C4D06784FEA661645F8264070BD08
:10039000194A01EA020242EA0002184B1A60704749
:1003A00031B1174A126842EA0002154B1A6005E0A3
:1003B000134A126822EA0002114B1A60704704289F
:1003C00008D14FF0E021096941F004014FF0E0222B
:1003D000116107E04FF0E021096921F004014FF0BD
:1003E000E0221161704700000000FA050CED00E00A
:1003F00000E400E080E100E080FFFF1F08ED00E086
:1004000010ED00E001684FF6FE7201EA02010160A2
:100410004FF00001016041608160C16088498842FD
:1004200006D18849496841F00F01864A516078E059
:1004300083491431884206D18249496841F0F0016C
:10044000804A51606DE07E492831884206D17D495D
:10045000496841F470617B4A516062E078493C31FF
:10046000884206D17749496841F47041754A516024
:1004700057E073495031884206D17249496841F4C6
:100480007021704A51604CE06D496431884206D158
:100490006C49496841F470016A4A516041E0684919
:1004A0007831884206D16749496841F07061654AF0
:1004B000516036E06449884208D1A0F1040109681E
:1004C00041F00F01A0F1040211602AE05E491431ED
:1004D000884206D15D49096841F0F0015B4A11602C
:1004E0001FE059492831884206D15849096841F42A
:1004F0007061564A116014E053493C31884206D17C
:100500005249096841F47041504A116009E04E496E
:100510005031884205D14D49096841F470214B4A58
:100520001160704710B54FF00002026847F6F07393
:1005300022EA03020C6A8B6843EA04030C6943EA6B
:1005400004034C6943EA04038C6943EA0403CC695D
:1005500043EA04034C6A43EA04038C6A43EA040353
:1005600043EA02020260CB6843600B6883604B6819
:10057000C36010BD4FF00001016041608160C16047
:10058000016141618161C1610162416281627047C3
:1005900021B1026842F00102026005E002684FF6F4
:1005A000FE7302EA03020260704722B1036843EA65
:1005B0000103036003E0036823EA0103036070475B
:1005C000416070470146486880B2704701464FF06D
:1005D0000000024611F0805F02D01D4B1A6801E056
:1005E000184B1A680A4202D04FF0010001E04FF0A8
:1005F0000000704710F0805F02D01449086001E0ED
:1006000010494860704701464FF00000024611F063
:10061000805F02D00E4B1A6801E00A4B1A680A424A
:1006200002D04FF0010001E04FF00000704710F0E1
:10063000805F02D00549086001E0024948607047C8
:100640000800024000000240080402400404024086
:10065000000402404FF000004A49086001F1040123
:10066000086001F10401086001F1040108604648D6
:100670004649086070474FF0000142498279002ADC
:1006800040D00A461268036822EA03020B461A6049
:1006900001F104021268036822EA030201F1040373
:1006A0001A60027911440A68036842EA03020A6088
:1006B000374A1268036822EA0302354B1A6003F1D5
:1006C00004021268036822EA0302324B1A6042797C
:1006D000102A0ED12E4A1268036842EA03022C4BFC
:1006E0001A602C4A1268036842EA0302294B1A6016
:1006F0000FE02449427911440A68036842EA030280
:100700000A6006E0027911440A68036822EA0302DB
:100710000A6070474FF00001016001714FF00C0159
:1007200041714FF00001817170471B49096841EA2E
:100730000001194A1160704701464FF00000134A4A
:1007400012680A4202D04FF0010001E04FF00000B1
:1007500070470E490860704701464FF0000002469E
:10076000084B1B6803EA0102084B1B680B4203D0CD
:1007700012B14FF0010001E04FF000007047034953
:100780000860704700040140FFFF0F00140401409F
:10079000080401400C0401401004014001464FF0E0
:1007A0000000FE4A106800F0380040EA01001060C6
:1007B0007047FA49096821F00801F84A11601146AA
:1007C000096841EA000111607047F449096821F0A5
:1007D0001001F24A11601146096841EA00011160F6
:1007E0007047EF48ED494860EE4848607047EC4874
:1007F000EA494860EB4848607047E848006940F0C3
:100800008000E64908617047E448006940F08000D4
:10081000E249086170474FF00400E049C96801F0FF
:100820000101012902D14FF0010011E0DB49C96843
:1008300011F0040F02D04FF0020009E0D749C96857
:1008400011F0100F02D04FF0030001E04FF0040050
:10085000704700B502464FF00403FFF7DCFF034684
:1008600004E0FFF7D8FF0346A2F10102012B01D1FA
:10087000002AF6D10AB94FF00503184600BD30B57D
:1008800004464FF004054FF43020FFF7E2FF054621
:10089000042D18D1C148006940F00200BF49086129
:1008A00008464461006940F0400008614FF4302080
:1008B000FFF7CFFF0546B948006941F6FD7100EA30
:1008C0000100B6490861284630BD10B54FF0040458
:1008D0004FF43020FFF7BDFF0446042C17D1AF487A
:1008E000006940F00400AD4908610846006940F025
:1008F000400008614FF43020FFF7ABFF0446A748E3
:10090000006941F6FB7100EA0100A4490861204634
:1009100010BD00B502464FF00403FFF77CFF03460D
:1009200004E0FFF778FF0346A2F10102012B01D199
:10093000002AF6D10AB94FF00503184600BD10B5DC
:100940004FF004044FF43020FFF7E3FF0446042C7B
:1009500017D19248006940F00400904908610846A8
:10096000006940F0400008614FF43020FFF7D1FFEC
:1009700004468A48006941F6FB7100EA0100874994
:100980000861204610BD4FF000008449C96911F08C
:10099000020F02D04FF0010001E04FF0000070475D
:1009A00030B54FF0A5054FF00404FFF7ECFF08B198
:1009B0004FF000054FF43020FFF74BFF0446042CA6
:1009C0003ED1774875498860764888600846006956
:1009D00040F0200008610846006940F040000861CE
:1009E0004FF43020FFF735FF0446042C1ED16B482E
:1009F000006941F6DF7100EA0100684908610846B4
:100A0000006940F010000861674805804FF400500D
:100A1000FFF71FFF0446052C12D06048006941F61D
:100A2000EF7100EA01005D49086109E0052C07D07B
:100A30005A48006941F6EF7100EA01005749086120
:100A4000204630BDF0B504460D464FF004064FF089
:100A500000074FF40050FFF7FCFE0646042E28D195
:100A60004E48006940F001004C49086125804FF470
:100A70000050FFF7EEFE0646042E12D104F10207E5
:100A80004FEA154038804FF40050FFF7E2FE06466B
:100A90004248006941F6FE7100EA01003F490861E1
:100AA00007E03E48006941F6FE7100EA01003B495B
:100AB00008613046F0BD70B504460D464FF004069F
:100AC0004FF40050FFF7C5FE0646042E13D13348FD
:100AD000006940F001003149086125804FF4005061
:100AE000FFF7B7FE06462D48006941F6FE7100EAA1
:100AF00001002A490861304670BD70B505460E46B2
:100B00004FF004044FF40050FFF7A3FE0446042CFA
:100B100019D1234821498860224888600846006925
:100B200040F0100008612E804FF40050FFF791FE56
:100B30000446052C07D01948006941F6EF7100EA18
:100B4000010016490861204670BD2DE9F0430446B6
:100B50004FF6FF763746B046B1464FF004056FEAD0
:100B60000404E6B2C4F30727C4F307484FEA146944
:100B70004FF40050FFF76DFE0546042D4CD1084898
:100B800006498860074888600846006940F0100000
:100B90000861FF2E11D00548068009E000200240C0
:100BA00023016745AB89EFCD00F8FF1F08F8FF1F51
:100BB0004FF40050FFF74DFE0546042D08D1FF2FDE
:100BC00006D0884807804FF40050FFF742FE0546E4
:100BD000042D0AD1B8F1FF0F07D08348A0F8008098
:100BE0004FF40050FFF735FE0546042D0AD1B9F148
:100BF000FF0F07D07D48A0F800904FF40050FFF79A
:100C000028FE0546052D07D07948006941F6EF71A9
:100C100000EA0100764908612846BDE8F08330B556
:100C200005464FF004044FF43020FFF712FE04464F
:100C3000042C46D16F486E4988606F48886008462A
:100C4000006940F0200008610846006940F040005B
:100C500008614FF43020FFF7FCFD0446042C26D138
:100C60006348006941F6DF7100EA010060490861EC
:100C70000846006940F01000086125B14FF00000FF
:100C80005E49088003E04FF0A5005C4908804FF4FE
:100C90003020FFF7DEFD0446052C12D054480069D1
:100CA00041F6EF7100EA01005149086109E0052CA5
:100CB00007D04F48006941F6DF7100EA01004C4956
:100CC0000861204630BDF0B505460E4617464FF088
:100CD0000404484846498860474888604FF40050FB
:100CE000FFF7B7FD0446042C1CD14148006940F0D1
:100CF00010003F49086147F0F80040EA060040EA6A
:100D000005003F4908804FF40050FFF7A2FD04465C
:100D1000052C07D03648006941F6EF7100EA010062
:100D2000334908612046F0BD3148C06980087047EA
:100D30002F48006A70474FF000002D49096811F0F4
:100D4000200F02D04FF0010001E04FF0000070478B
:100D500031B1274A126942EA0002254B1A6105E0C7
:100D6000234A126922EA0002214B1A6170470146A8
:100D70004FF0000001290AD11D4AD26912F0010F7B
:100D800002D04FF001000BE04FF0000008E0184ADD
:100D9000D2680A4202D04FF0010001E04FF000009B
:100DA00070471349C86070474FF004001049C96884
:100DB00001F00101012902D14FF0010011E00C49BD
:100DC000C96811F0040F02D04FF0020009E0084991
:100DD000C96811F0100F02D04FF0030001E04FF08E
:100DE000040070470AF8FF1F0CF8FF1F0EF8FF1FE2
:100DF0000020024023016745AB89EFCD00F8FF1FBB
:100E000002F8FF1F10B50446DE48844208D10121D4
:100E1000042000F0B5FD0021042000F0B1FD46E003
:100E2000D948844208D10121082000F0A9FD002101
:100E3000082000F0A5FD3AE0D448844208D1012101
:100E4000102000F09DFD0021102000F099FD2EE003
:100E5000CF48844208D10121202000F091FD0021DB
:100E6000202000F08DFD22E0CA48844208D10121F3
:100E7000402000F085FD0021402000F081FD16E0BB
:100E8000C548844208D10121802000F079FD00216D
:100E9000802000F075FD0AE0C048844207D101219E
:100EA000801500F06DFD0021A01500F069FD10BD5A
:100EB00010B50121084600F063FD0021012000F07B
:100EC0005FFD10BD2DE9F04102464FF000052E46B2
:100ED000284603460446074691F803C00CF00F0568
:100EE00091F803C01CF0100F03D091F802C04CEA37
:100EF0000505B1F800C01CF0FF0F35D014684FF0A5
:100F000000002EE04FF0010C0CFA00F3B1F800C025
:100F10000CEA03069E4222D14FEA80034FF00F0CE9
:100F20000CFA03F724EA070405FA03FC4CEA04046C
:100F300091F803C0BCF1280F06D14FF0010C0CFA58
:100F400000FCC2F814C00AE091F803C0BCF1480FDD
:100F500005D14FF0010C0CFA00FCC2F810C000F1F2
:100F600001000828CED31460B1F800C0BCF1FF0F17
:100F700038DD54684FF0000031E000F1080C4FF00C
:100F8000010808FA0CF3B1F800C00CEA03069E420F
:100F900023D14FEA80034FF00F0C0CFA03F724EA39
:100FA000070405FA03FC4CEA040491F803C0BCF101
:100FB000280F05D100F1080C08FA0CF8C2F81480CB
:100FC00091F803C0BCF1480F07D100F1080C4FF0B5
:100FD000010808FA0CF8C2F8108000F10100082896
:100FE000CBD35460BDE8F0814FF6FF7101804FF024
:100FF000020181704FF00401C170704702464FF04A
:10100000000093680B4202D04FF0010001E04FF066
:10101000000070470146886880B2704702464FF072
:101020000000D3680B4202D04FF0010001E04FF006
:10103000000070470146C86880B270470161704780
:10104000416170470AB1016100E041617047C160D0
:1010500070474FF4803242EA01028261816182610D
:1010600082698269704702464FF000004C4B186855
:101070004FF6807300EA030040EA021040EA0100E4
:10108000474B186070474749C8617047F0B50A463A
:101090004FF000031C4619460D4600F00046B6F11D
:1010A000004F02D13E4EF16901E03D4E7168C0F340
:1010B000034583B200F44016B6F5401F08D121F075
:1010C0007061374E766826F07066354F7E6017E0A7
:1010D00000F48016B6F5801F08D14FF0030606FA1B
:1010E00005F421EA040141F0706109E04FEA50562D
:1010F0004FEA061603FA06F621EA060141F070618E
:101100003AB14FEA50564FEA061603FA06F646EA97
:10111000010100F00046B6F1004F02D1204EF1610E
:1011200001E01F4E7160F0BD30B54FF000024FEA94
:1011300081734FEA13744FF00F0303FA04F21A4B52
:101140004FEAA10453F8243023EA0203164C4FEA75
:10115000A10544F8253023464FEAA10453F8243072
:101160004FEA81744FEA147400FA04F443EA04036A
:101170000D4C4FEAA10544F8253030BD0B490860FD
:101180007047000000080140000C014000100140C1
:101190000014014000180140001C014000200140E3
:1011A000000001400000204208000140DC00204215
:1011B00010B50446FB48844209D10121480500F0DE
:1011C000EEFB00214FF4001000F0E9FB08E00121E4
:1011D000880500F0E4FB00214FF4800000F0DFFB05
:1011E00010BD2DE9F04385B004460D464FF00006D2
:1011F000B1464FF00407DFF8B083A6884FF6C07001
:1012000006EA0006684600F022FBDDF80880E748A1
:10121000B8FBF0F01FFA80F946EA0906A68020889C
:101220004FF6FE7100EA010020804FF00006E04911
:10123000286888420FD828684FEA4000B8FBF0F0D1
:1012400087B2042F01DA4FF0040746EA070609F1D6
:101250000100208429E0E888A0F53F41FF3906D14C
:10126000286800EB4000B8FBF0F087B209E028687E
:1012700000EBC00101EB0010B8FBF0F087B247F4BF
:1012800080473805000D01D147F0010747F40040C1
:1012900040EA06064FF4967009FB00F04FF47A71AD
:1012A00090FBF1F000F101002084A683208840F03B
:1012B0000100208026884FF6F53006EA0006A8884F
:1012C000698940EA010040EA06062680A889298942
:1012D00040EA0100208105B0BDE8F08341F2883189
:1012E00001604FF0000181804BF6FF71C1804FF02B
:1012F0000001018141814FF480418181704721B11A
:10130000028842F00102028005E002884FF6FE7377
:1013100002EA03020280704721B1828842F400622F
:10132000828005E082884FF2FF7302EA0302828026
:10133000704721B1828842F48052828005E0828821
:101340004EF6FF7302EA03028280704721B10288E1
:1013500042F48072028005E002884FF6FF6302EAE1
:1013600003020280704721B1028842F400720280B9
:1013700005E002884FF6FF5302EA0302028070473D
:1013800021B1028842F48062028005E002884FF6B3
:10139000FF3302EA0302028070470A464FF0000161
:1013A00081894FF6017301EA030102F0FE0343EA6B
:1013B00001018181704721B1828942F0010282815D
:1013C00005E082894FF6FE7302EA030282817047CC
:1013D00021B1028842F04002028005E002884FF607
:1013E000BF7302EA03020280704710B522B18388FE
:1013F00043EA0103838006E083886FEA0104A4B214
:1014000003EA0403838010BD018270470146088A05
:10141000C0B2704712B141F0010103E04FF6FE7314
:1014200001EA03010182704702464FF000031346B0
:101430000B441888704721B1028842F400420280B0
:1014400003E00288C2F30E0202807047B1F5006F1C
:1014500004D1028842F40062028005E002884FF263
:10146000FF7302EA030202807047B1F5005F04D106
:10147000028842F40052028005E002884DF6FF73B4
:1014800002EA03020280704721B1028842F48052CE
:10149000028005E002884EF6FF7302EA0302028032
:1014A0007047B1F5006F04D1028842F400620280F7
:1014B00005E002884FF2FF7302EA030202807047E0
:1014C00021B1028842F02002028005E002884FF636
:1014D000DF7302EA0302028070470146088B4FEA7D
:1014E0002020704721B1028842F01002028005E0FE
:1014F00002884FF6EF7302EA03020280704721B9B7
:10150000028842F08002028005E002884FF67F7375
:1015100002EA030202807047B1F5804F06D0828B49
:101520004BF6FF7302EA0302828303E0828B42F4EC
:1015300080428283704770B502464FF00004254612
:1015400023461846958A138B4FEA034345EA030660
:1015500026F07F4404EA01068E4202D14FF00100DA
:1015600001E04FF0000070BD10B501464FF00000E3
:10157000034602468B8A0A8B4FEA024243EA020480
:1015800024F07F4010BD30B503464FF00000044604
:1015900002461A464FEA117421F07F4154B102F11C
:1015A00014020BE00054004000127A0040420F0089
:1015B000A08601004FEA114102F1180215680D42A0
:1015C00002D04FF0010001E04FF0000030BD4FF0BD
:1015D000000221F07F426FEA02038382704730B538
:1015E00002464FF000000346948801F0E06504EAEB
:1015F000154321F07F41948A0C4203D013B14FF080
:10160000010001E04FF0000030BD4FF0000221F07A
:101610007F426FEA0203838270470000F748006848
:1016200040F00100F549086008464068F44900EAC6
:101630000100F249486008460068F24900EA0100EA
:10164000EE4908600846006820F4802008600846DB
:10165000406820F4FE0048604FF41F008860704727
:10166000E649096821F48031E44A116011460968AD
:1016700021F480211160B0F5803F03D0B0F5802FB8
:101680000ED106E0DD49096841F48031DB4A116082
:1016900007E0DA49096841F4A021D84A116000E066
:1016A00000BF00BF704710B501464FF0000213465F
:1016B00010464FEA6112012A02D1D04C236806E09D
:1016C000022A02D1CD4C236A01E0CC4C636A01F0BE
:1016D0001F024FF0010404FA02F41C4202D04FF042
:1016E000010001E04FF0000010BD70B54FF00004A4
:1016F0002546264600BF3120FFF7D5FF064604F1F8
:101700000104B4F5A06F01D0002EF4D03120FFF712
:10171000CAFF10B14FF0010501E04FF00005284667
:1017200070BD01464FF00000B44A106820F0F80088
:1017300040EAC10010607047B34908607047024634
:101740004FF00000AD4B586820F47C1042EA0103D2
:1017500043EA0000A94B58607047AB4908667047E0
:1017600001464FF00000A54A506820F0030040EA0F
:10177000010050607047A148406800F00C007047BD
:1017800001464FF000009D4A506820F0F00040EA0A
:1017900001005060704701464FF00000974A5068C2
:1017A00020F4E06040EA01005060704701464FF0CD
:1017B0000000924A506820F4605040EAC100506036
:1017C000704731B18D4A527A42EA00028B4B5A720D
:1017D00008E08A4A527A6FEA0003DBB202EA0302A7
:1017E000864B5A72704789490860704701464FF02E
:1017F0000000824A506820F4404040EA01005060F6
:1018000070474FF00001824A11707C4A82F8201024
:10181000012802D004280AD104E04FF001017C4ADB
:10182000117005E04FF00501794A117000E000BF2A
:1018300000BF70477749086070477049096A41EAFC
:1018400000016E4A1162704773490860704730B5F5
:101850004FF000010A460C460B46684D6D6805F0D6
:101860000C0121B1042905D0082927D105E06B4DD1
:10187000056026E0694D056023E0604D6D6805F464
:1018800070125E4D6D6805F480344FF0020505EB73
:10189000924224B9624D02FB05F505600DE0574DFB
:1018A0006D6815F4003F04D05D4D02FB05F5056041
:1018B00003E05A4D02FB05F5056002E0574D056057
:1018C00000BF00BF4D4D6D6805F0F0014FEA1111EA
:1018D000544D6B5C056825FA03F54560474D6D680E
:1018E00005F4E0614FEA11214E4D6B5C456825FA25
:1018F00003F58560414D6D6805F460514FEAD121D3
:10190000484D6B5C456825FA03F5C5603B4D6D6835
:1019100005F440414FEA9131434D6B5CC568B5FB1E
:10192000F3F5056130BD31B1344A526942EA000233
:10193000324B5A6105E0314A526922EA00022F4BCC
:101940005A61704731B12D4A926942EA00022B4B2D
:101950009A6105E0294A926922EA0002274B9A61BE
:10196000704731B1254AD26942EA0002234BDA615D
:1019700005E0224AD26922EA0002204BDA61704770
:1019800031B11E4AD26842EA00021C4BDA6005E01F
:101990001A4AD26822EA0002184BDA60704731B165
:1019A000164A126942EA0002144B1A6105E0134A12
:1019B000126922EA0002114B1A6170471B49086044
:1019C00070471149C86470470C49C87170470B488B
:1019D000406A40F0807009494862704701464FF004
:1019E0000000064A92680A4202D04FF0010001E06E
:1019F0004FF00000704701498872704700100240A4
:101A00000000FFF8FFFFF6FE00004242D80042420D
:101A100020100240800442423C04424200127A00FC
:101A200000093D0014000020240000204004424230
:101A300010B50446F848844209D101218803FFF714
:101A40009FFF00214FF48040FFF79AFF32E0F348F8
:101A5000844209D101214804FFF7A1FF00214FF47E
:101A60000030FFF79CFF25E0ED48844209D10121B9
:101A70008804FFF794FF00214FF48020FFF78FFFC9
:101A800018E0E848844209D10121C804FFF787FF24
:101A900000214FF40020FFF782FF0BE0E248844270
:101AA00008D101210805FFF77AFF00214FF48010CB
:101AB000FFF775FF10BD2DE9F04786B005460E46CD
:101AC0004FF00004A24600BFA1462746B08900B1EE
:101AD00000BF2F462C8A4CF6FF7004EA0004F08801
:101AE00040EA04042C82AC894EF6F31004EA0004A8
:101AF000B088318940EA0100718940EA010040EA7A
:101B00000404AC81AC8A4FF6FF4004EA0004B089BB
:101B100040EA0404AC8201A8FFF799FEBE48874260
:101B200002D1DDF810A001E0DDF80CA0A88910F4C6
:101B3000004F09D00AEBCA0000EB0A1031684FEAE7
:101B40004101B0FBF1F808E00AEBCA0000EB0A1013
:101B500031684FEA8101B0FBF1F84FF06400B8FB47
:101B6000F0F04FEA00144FEA14104FF0640101FB4B
:101B70001089A88910F4004F0AD04FF0320000EB12
:101B8000C900B0FBF1F000F0070040EA04040BE0EC
:101B90004FF0320000EB09104FF06401B0FBF1F0A0
:101BA00000F00F0040EA04042C8106B0BDE8F08785
:101BB0004FF4165101604FF000018180C180018116
:101BC0004FF00C0141814FF000018181704710B549
:101BD00002464FF00000108A4FF2FF0300EA0300B4
:101BE0000B884C8843EA04038C8843EA0403CC88BE
:101BF00043EA040343EA0000108210BD4FF00001E5
:101C0000018041808180C180704721B1828942F486
:101C10000052828105E082894DF6FF7302EA0302D9
:101C200082817047F0B503464FF0000426462546F2
:101C30002046A1F510676A3F00D100BF1846C1F3E6
:101C4000421401F01F064FF0010707FA06F5012CB8
:101C500002D100F10C0006E0022C02D100F11000CC
:101C600001E000F1140022B1076847EA05070760A8
:101C700003E0076827EA05070760F0BD10B522B149
:101C8000838A43EA0103838206E0838A6FEA0104C0
:101C9000A4B203EA0403838210BD028A4FF6F073F4
:101CA00002EA03020282028A42EA010202827047C9
:101CB00082894FF2FF7302EA03028281828942EA3B
:101CC00001028281704721B1828942F00202828141
:101CD00005E082894FF6FD7302EA030282817047B4
:101CE000028A4FF6DF7302EA03020282028A42EAA4
:101CF00001020282704721B1028A42F480420282CC
:101D000005E0028A4BF6FF7302EA03020282704783
:101D1000C1F308028280704701468888C0F308003A
:101D20007047818941F0010181817047028BD2B2F5
:101D30000283028B42EA012202837047028B02F483
:101D40007F420283028B42EA01020283704721B183
:101D5000828A42F02002828205E0828A4FF6DF7397
:101D600002EA03028282704721B1828A42F01002A5
:101D7000828205E0828A4FF6EF7302EA03028282D2
:101D8000704721B1828A42F00802828205E0828A8D
:101D90004FF6F77302EA03028282704721B182890B
:101DA00042F40042828103E08289C2F30E02828102
:101DB000704721B1828A42F40062828205E0828A01
:101DC0004FF2FF7302EA030282827047828A4FF663
:101DD000FB7302EA03028282828A42EA0102828261
:101DE000704721B1828A42F00202828205E0828A33
:101DF0004FF6FD7302EA03028282704702464FF0FB
:101E00000000B1F5007F00D100BF13880B420DD058
:101E10004FF001000CE00000003801400044004099
:101E200000480040004C0040005000404FF00000CF
:101E3000704701F40072B2F5007F00D100BF6FEA75
:101E400001020280704770B502464FF0000423463D
:101E50001D461846A1F510666A3E00D100BFC1F3C9
:101E6000421501F01F034FF0010606FA03F3012D9E
:101E700003D1968906EA030308E0022D03D1168AEE
:101E800006EA030302E0968A06EA03034FEA2124E6
:101E90004FF0010606FA04F4168806EA04041BB1A2
:101EA00014B14FF0010001E04FF0000070BD10B51B
:101EB0004FF000021346A1F510646A3C00D100BF48
:101EC0004FEA21224FF0010404FA02F4A3B26FEAB0
:101ED0000304048010BD000000B585B00121880511
:101EE000FFF73FFD01210920FFF72CFDE648FFF732
:101EF0005FF94FF00000ADF808004BF6FF70ADF849
:101F00000A004FF0DD00ADF80C004FF48060ADF832
:101F10000E004FF48040ADF81000DC4801904FF403
:101F20008060ADF800004FF01C008DF803004FF00A
:101F300001008DF802006946D548FEF7C3FF4FF453
:101F40000060ADF800004FF01C008DF803004FF06A
:101F500001008DF802006946CD48FEF7B3FF01216C
:101F6000C948FFF7CCF901A9C748FFF73AF905B00E
:101F700000BD2DE9F04104460E4615464FF0010123
:101F8000C148FFF7E3F900BFC249BF48FFF7D3FAE2
:101F90000128F9D1C048078804F0FE044FF0000280
:101FA0002146B948FFF736FA00BFBC49B648FFF7EB
:101FB000C2FA0028F9D03146B348FFF725FA00BF2E
:101FC000B649891CB048FFF7B6FA0028F8D0294670
:101FD000AD48FFF719FA00BFB049891CAA48FFF7BE
:101FE000AAFA0028F8D00121A748FFF7BCF9BDE8FC
:101FF000F08170B504460D464FF00101A248FFF78D
:10200000A5F900BFA349A048FFF795FA0028F9D029
:1020100000219D48FFF7B4F944F001044FF000029D
:1020200021469948FFF7F6F900BF9C499648FFF70B
:1020300082FA0028F9D029469348FFF7E5F900BF56
:102040009649891C9048FFF776FA0028F8D00121BC
:102050008D48FFF77BF900BF8E498B48FFF76BFA7D
:102060000028F9D0012221468748FFF7D3F900BFA5
:102070008849491C8448FFF75EFA0028F8D00121FE
:102080008148FFF770F900BF82493F317E48FFF772
:1020900052FA0028F8D07C48FFF7B8F906463046D7
:1020A00070BD10B500224FF4E0617748FFF79DF94D
:1020B000AF222021D020FFF75CFF00222121D02079
:1020C000FFF757FF08222221D020FFF752FF1022EE
:1020D0002321D020FFF74DFF00222421D020FFF73D
:1020E00048FF2F2220213020FFF743FF002221212B
:1020F0003020FFF73EFF102222213020FFF739FF6A
:10210000002223213020FFF734FF00222421302039
:10211000FFF72FFF62A000F077FF01224FF440711C
:102120005948FFF762F910BD2DE9F0414FF0000466
:10213000254626464FF028014FF0D000FFF759FF03
:1021400007462921D020FFF754FF07EB0024B4F500
:10215000004F01DBA4F580342A21D020FFF749FF8E
:1021600007462B21D020FFF744FF07EB0025B5F5EC
:10217000004F01DBA5F580352C21D020FFF739FF7A
:1021800007462D21D020FFF734FF07EB0026B6F5D8
:10219000004F01DBA6F5803633462A46214645A08E
:1021A00000F032FFBDE8F0812DE9F0414FF000046E
:1021B0002546264627464FF03F024FF020014FF0BC
:1021C0003000FFF7D6FE28213020FFF712FF8046AF
:1021D00029213020FFF70DFF08EB0024B4F5004F54
:1021E00001DBA4F580342A213020FFF702FF80466E
:1021F0002B213020FFF7FDFE08EB0025B5F5004F41
:1022000001DBA5F580352C213020FFF7F2FE80465A
:102210002D213020FFF7EDFE08EB0026B6F5004F2C
:1022200001DBA6F5803633462A46214626A000F07B
:10223000EBFEBDE8F08100BF00BF00F0D9F800F070
:102240001CFA00F01DF900F0B0FA00F058F900F0A7
:102250002AFA4FF000002049487004E000F000FE28
:102260001EA000F0D1FEF9E770B504460D46E1B2BC
:102270001B48FFF74DFD00BF80211948FFF7BEFD49
:102280000028F9D0204670BD00580040400D0300E2
:10229000000C0140010003001458004082000700B8
:1022A0000A4759524F5F696E697420444F4E452169
:1022B0000A0000006779726F203A256420256420A7
:1022C000256420202000000061636365723A256464
:1022D0002025642025640A002800002078780A0060
:1022E00000380140704700BFFEE700BFFEE700BFB7
:1022F000FEE700BFFEE770477047704710B500F07B
:10230000B4FB10BD704710B54020FEF725FA60B34E
:102310003448407830BB34488179C07901EB0020E3
:1023200000B2314948820846017A407A01EB002028
:1023300000B22D4988820846817AC07A01EB0020DC
:1023400000B22949C8824FF028014FF0D00000F0B8
:1023500064FA4FF04000234948704FF001012348D0
:10236000FEF7F4FF4020FEF70AFA10BD10B5022078
:10237000FEF7F2F960B31B48407830BB1A48017889
:10238000407801EB002000B2174988810846817827
:10239000C07801EB002000B21349C88108460179DA
:1023A000407901EB002000B20F4908824FF028016C
:1023B0004FF0300000F031FA4FF0800009494870CA
:1023C0004FF001010948FEF7C1FF0220FEF7D7F9DF
:1023D00010BD10B500F035FA10BD10B500F01FFBB0
:1023E00010BD0000280000203400002000580040EC
:1023F00010B5FFF713F94FF48030FFF731F9FFF70D
:1024000074F90446012C29D11020FEF7DEF90220D0
:10241000FEF7C4F90020FFF7B3F94FF4C060FFF7EF
:10242000C5F9A002FFF7B7F94FF44040FFF7DEF916
:102430004FF4E0112004FFF782F90120FFF78DF936
:1024400000BF3920FFF72FF90028FAD00220FFF74C
:1024500087F900BFFFF78FF90828FBD10121084653
:10246000FFF761FA01214FF40170FFF76BFA0121C8
:102470000820FFF767FA01211020FFF763FA10BD6B
:1024800000B585B04FF4E13001904FF00000ADF899
:102490000800ADF80A00ADF80C00ADF810004FF0E0
:1024A0000C00ADF80E004FF0010144F20100FFF7FF
:1024B00049FA4FF40070ADF800004FF018008DF8A5
:1024C00003004FF003008DF802006946FE48FEF756
:1024D000F9FC4FF48060ADF800004FF004008DF877
:1024E00003006946F848FEF7EDFC01A9F748FFF73D
:1024F000E2FA0121F548FFF788FB05B000BD00B501
:1025000087B001218805FFF72CFA01210920FFF788
:1025100019FA4FF00000ADF810004BF6FF70ADF85F
:1025200012004FF0A000ADF814004FF00000ADF81D
:1025300016004FF48040ADF81800E54803904FF4C2
:102540008060ADF808004FF01C008DF80B004FF0D4
:1025500003008DF80A0002A9DE48FEF7B3FC4FF431
:102560000060ADF808004FF01C008DF80B004FF034
:1025700003008DF80A0002A9D648FEF7A3FC03A9C0
:10258000D548FEF72EFE4FF4E060FDF7BBFE4FF09E
:1025900021008DF804004FF005008DF806004FF083
:1025A00001008DF805008DF8070001A8FDF7B0FEC9
:1025B0004FF022008DF804004FF005008DF8060062
:1025C0004FF000008DF805004FF001008DF8070076
:1025D00001A8FDF79DFE01224FF44071BE48FEF7B1
:1025E00004FF0021BC48FEF797FE0121BA48FEF720
:1025F00086FE07B000BD00B58DB0B848FDF702FFFC
:10260000B7480290B74803904FF0000004904FF095
:10261000060005904FF0000006904FF080000790F4
:102620004FF00000089009904FF020000A904FF4FE
:1026300080500B904FF000000C9002A9A748FDF7C6
:1026400071FF0121A548FDF7A3FF4FF00F008DF8A2
:1026500004004FF000008DF806008DF805004FF0E3
:1026600001008DF8070001A8FDF752FE01220221AA
:102670009A48FDF79AFF0DB000BD08B54FF0200055
:10268000ADF800004FF010008DF803004FF002008D
:102690008DF8020069468F48FEF714FC20218D4812
:1026A000FEF7CCFC08BD1FB501210920FFF74AF950
:1026B00001210420FFF746F94FF007008DF80000D4
:1026C0004FF002008DF801008DF802004FF001007C
:1026D0008DF803006846FDF71BFE4FF017008DF8DC
:1026E00000004FF003008DF801004FF002008DF85C
:1026F00002004FF001008DF803006846FDF708FE68
:1027000002217448FEF79CFC40216F48FEF798FCBC
:102710004FF00200ADF80C004FF028008DF80F00CC
:1027200003A96C48FEF7CEFB4FF04000ADF80C005B
:102730004FF004008DF80F0003A96348FEF7C2FBB9
:10274000FDF788FF01210846FEF7EEFC0621002078
:10275000FEF7EAFC4FF0020001904FF000008DF808
:1027600008004FF008008DF809004FF001008DF8C7
:102770000A0001A8FDF77FFF4FF0400001904FF0E5
:1027800000008DF808004FF008008DF809004FF0A8
:1027900001008DF80A0001A8FDF76DFF0220FDF78A
:1027A000C4FF4020FDF7C1FF1FBD70B54E49B1F118
:1027B000807F02D34FF0010028E021F07F40A0F19C
:1027C00001004FF0E02250614FF0FF304FF00F0258
:1027D00000280ADA4FEA02734FEA1365434B00F010
:1027E0000F04A4F104041D5505E04FEA02734FEAFB
:1027F00013643F4B1C5400BF4FF000004FF0E02229
:1028000090614FF0070010614FF0000020B139A037
:1028100000F0FAFB00BFFEE770BD02463D4880793C
:1028200008B1002070473B48027081704FF00100F2
:10283000384B18714FF000005871D8704FF00100FC
:10284000F0E710B534492448FEF7C9FEE8B100218D
:102850002148FEF795FD2F48007901280ED12D481B
:10286000407958B14FF001002A4948710846017873
:102870004FF001021848FEF7CDFD8FE025480178A2
:1028800000221548FEF7C6FD88E02349491C12487E
:10289000FEF7A5FEB0B121480088C4B220480088E8
:1028A000C4B21C480079012841D11A48407950B17E
:1028B00000210948FEF764FD01210748FEF753FD9A
:1028C00001222FE039E032E00008014000380140E9
:1028D000801A0600000C01400058004058000240D9
:1028E000105800403A0000204019010018ED00E0A7
:1028F00000E400E07379737469636B206572726F32
:10290000722E7469636B20697320746F6F20626923
:1029100067210A002800002001000002145800402E
:102920001858004091025448FEF75FFD04E0012270
:1029300091025148FEF759FD30E050494E48FEF7EC
:102940004EFE78B14C48FEF761FD4D49C87000223B
:102950004FF480614848FEF748FD4FF001004849B8
:10296000C8711BE0454940314348FEF738FEA8B125
:10297000434881784048FEF747FD4FF00100404949
:10298000487108460079012804D1002281023A48A2
:10299000FEF72BFD01213848FEF7D8FC3848C079F6
:1029A000B0B33748407800F007044FF000003449D6
:1029B000C87148710846407800F0E00020280ED029
:1029C000402806D080280BD10846C0782D490855EC
:1029D00007E02B48C1782B48801D015501E000E03D
:1029E00000BF00BF052C14DA2548407800F1010033
:1029F000234948700846807800F1010088704FF044
:102A0000000048714FF001011B48FEF79FFC04E0F5
:102A100004E04FF000001A49487000BF10BD70B5C7
:102A20001948048800BF14F4A06F03D00121124894
:102A3000FEF799FC14F4E06F0CD0144805884FF0B1
:102A400000024FF480610C48FEF7CFFC01210A48D8
:102A5000FEF77CFC0C48008820F470600A4908806E
:102A60004FF001000649C87170BD0948006880F048
:102A700020000749086070470058004040000006E9
:102A80002800002034000020145800401854004052
:102A90000C0C0140F0B5059D4FF000040CE00668F9
:102AA0000F683E44166000F1040001F1040102F1D8
:102AB000040204F1010674B203FB05F6A642EEDC43
:102AC000F0BD2DE9FE4F05460C9C4FF00006374641
:102AD000B346CDF808B030460195884600BF09E0FE
:102AE0004FF0000BC2F800B002F1040200F1010B3C
:102AF0000BF0FF0003FB04FB8345F1DC03FB04FB4D
:102B0000A2EB8B024FF0000038E04FF0000E019D69
:102B100090FBF4FB0BFB04FB05EB8B05414690FBA4
:102B2000F3FB03FB1B0B01EB8B01F44619E005EBF8
:102B30008709D9F800A001EB8609D9F800B0CDF8D3
:102B400000B0DDF800B00AFB0BEE07F1010B0BF053
:102B5000FF0706EB040B0BF0FF060CF1010B0BF06B
:102B6000FF0CA445E3DB4FF000063746C2F800E057
:102B700002F1040200F1010B0BF0FF0003FB04FB68
:102B80008345C2DCBDE8FE8F2DE9F04792B0844654
:102B90004FF000000BE0DCF80080C1F8008001F18C
:102BA00004010CF1040C00F101084FFA88F005282B
:102BB000F1DDA1F19001ACF1900C4FF00000F3E0D9
:102BC0004FF00009C3B224E0C4B21CE003EB430899
:102BD00004EB48084FFA88F65CF82680B8F1000F3D
:102BE00001DBC24601E0C8F1000A57464F4506DD49
:102BF000B9460DF1240808F800300DF8004004F142
:102C0000010808F0FF04052CE0DD03F1010808F0DD
:102C1000FF03052BD8DD0DF1240818F8008080454E
:102C200020D04FF000041BE000EB400804EB480804
:102C30004FFA88F20DF1240818F8008008EB4808D4
:102C400004EB48084FFA88F551F8227051F82580B6
:102C500041F8228041F8257004F1010808F0FF04D2
:102C6000052CE1DD1DF8008080451ED04FF00003EB
:102C700019E003EB430800EB48084FFA88F21DF80F
:102C8000008003EB430A08EB4A084FFA88F551F835
:102C9000227051F8258041F8228041F8257003F117
:102CA000010808F0FF03052BE3DD00EB400800EB13
:102CB00048084FFA88F6D1F80080B044DFF89CA1AC
:102CC0009AFBF8F841F826804FF0000417E08442A0
:102CD00011D000EB400804EB48084FFA88F251F895
:102CE000228051F826A008FB0AF84FF47A7A98FB64
:102CF000FAF841F8228004F1010808F0FF04052CDD
:102D0000E5DD4FF000032EE0834228D04FF00004B1
:102D100023E084421DD003EB430804EB48084FFA3C
:102D200088F203EB430800EB480851F8288000EBD9
:102D3000400A04EB4A0A51F82AA008FB0AF84FF4AB
:102D40007A7A98FBFAF851F822A0AAEB080841F821
:102D5000228004F1010808F0FF04052CD9DD03F1FD
:102D6000010808F0FF03062BCEDD4FF0000315E04D
:102D700083420FD003EB430800EB48084FFA88F278
:102D800051F82280C8F1000851F826A008FB0AF883
:102D900041F8228003F1010808F0FF03052BE7DD6D
:102DA00000F101084FFA88F005287FF709AF4FF0CE
:102DB00005004DE01DF8008080451ED04FF0000456
:102DC00019E000EB400804EB48084FFA88F21DF8C0
:102DD000008008EB480804EB48084FFA88F551F8E2
:102DE000227051F8258041F8228041F8257004F1C5
:102DF000010808F0FF04052CE3DD0DF1240818F8A4
:102E00000080804520D04FF000031BE003EB430817
:102E100000EB48084FFA88F20DF1240818F80080FA
:102E200003EB430A08EB4A084FFA88F551F8227081
:102E300051F8258041F8228041F8257003F10108FE
:102E400008F0FF03052BE1DBA0F101084FFA88F041
:102E50000028AFDA12B0BDE8F087000040420F0052
:102E6000EEB04FF090022F494AA800F07FF84FF0E3
:102E700090022C4901F1900126A800F077F84FF05C
:102E8000900102A800F08BF84AAE26AF02AC0620F3
:102E900003462246394600903046FFF7FBFD22A04C
:102EA00000F0B2F84FF0000508E024A0216800F01F
:102EB000ABF804F1040405F10100C5B2242DF4DBE4
:102EC00002AC062003462246394600903046FFF702
:102ED000F8FD1BA000F098F84FF0000508E017A0DF
:102EE000216800F091F804F1040405F10100C5B275
:102EF000242DF4DB02AC21463046FFF745FE16A038
:102F000000F082F84FF0000508E00CA0216800F006
:102F10007BF804F1040405F10100C5B2242DF4DBB3
:102F200000BFFEE7983100080A6D6174726978206D
:102F300073756D2069733A200A0000002564200033
:102F40000A6D6174726978206D756C7469706C7942
:102F50002069733A0A0000000A6D61747269782072
:102F6000696E766572732069733A0A0040EA01035C
:102F70009B0703D009E008C9121F08C0042AFAD22F
:102F800003E011F8013B00F8013B521EF9D27047F3
:102F9000D2B201E000F8012B491EFBD2704700229B
:102FA000F6E710B504460846114602462046FFF7EC
:102FB000EFFF204610BD30B50B4601460020202211
:102FC000012409E021FA02F59D4205D303FA02F536
:102FD000491B04FA02F52844151EA2F10102F1DC96
:102FE00030BD0000064C074D06E0E06840F00103EC
:102FF00094E8070098471034AC42F6D3FDF77AF80E
:10300000B8320008D83200080FB4054B10B503A938
:10301000044A029800F018F810BC5DF814FB000098
:10302000692200083000002002E008C8121F08C111
:10303000002AFAD170477047002001E001C1121F39
:10304000002AFBD1704700002DE9FF4F89B00446EC
:103050009B46002596E0252833D10027641C4D4A65
:10306000B84601212378203B01FA03F0104202D038
:103070000743641CF6E720782E2819D114F8010FB5
:1030800047F004072A280ED06FF02F022078A0F115
:10309000300109290CD808EB880102EB410100EB53
:1030A0000108641CF2E70A98641C50F8048B0A902B
:1030B000207800286AD0642808D0692806D07528AE
:1030C0001FD05A460B9990476D1C5AE00A994FF051
:1030D0000A0901C90A91002804DAC0F100004FF082
:1030E0002D0102E0390504D52B218DF82010012196
:1030F00004E0F90701D02021F7E700218A4608AE55
:103100000CE00A994FF00A0901C90A91F5E749460E
:10311000FFF751FF01F1300106F8011D0028F6D13B
:10312000ADEB060000F12009780701D44FF001084B
:10313000C84502DDA8EB090000E00020804600271A
:1031400006E008A85A46C05D0B9990476D1C7F1C8D
:103150005745F6DB04E030205A460B9990476D1C2A
:10316000B8F10001A8F10108F5DC05E016F8010B43
:103170005A460B9990476D1CB9F10001A9F101095C
:10318000F4DC641C207800287FF465AF0DB028467D
:10319000BDE8F08F092801000200000001000000D6
:1031A000000000000000000000000000000000001F
:1031B000010000000200000000000000000000000C
:1031C00000000000000000000300000000000000FC
:1031D00002000000000000000000000000000000ED
:1031E00000000000000000000000000002000000DD
:1031F00000000000000000000000000000000000CF
:1032000000000000000000000200000000000000BC
:1032100000000000000000000000000000000000AE
:103220000000000002000000020000000100000099
:10323000030000000000000000000000000000008B
:10324000010000000200000000000000000000007B
:10325000000000000000000000000000000000006E
:10326000020000000000000000000000000000005C
:10327000000000000000000000000000020000004C
:10328000000000000000000000000000000000003E
:10329000000000000000000002000000000000002C
:1032A000000000000000000000000000000000001E
:1032B0000000000002000000D832000800000020DA
:1032C00034000000283000080C33000834000020CF
:1032D0001C0400003830000800A24A04000000006E
:1032E00000000000010203040607080900000000B6
:1032F0000102030401020304060708090204060888
:0C330000000000000000000000000000C1
:04000005080000ED02
:00000001FF
